:100000000C9493000C94090A0C94E2090C94BB0024
:100010000C94BB000C94BB000C94BB000C94300AF5
:100020000C94BB000C94BB000C94BB000C94BB0064
:100030000C94BB000C94BB000C94BB000C94BB0054
:100040000C9498090C94BB000C94D80A0C94B20A36
:100050000C94BB000C94BB000C94BB000C94BB0034
:100060000C940A0B0C94BB002C20002020006D6522
:100070006E753A00202020202020437573746F6D28
:100080002020202000202020202020204226572031
:1000900020202020200020202020202020452D3638
:1000A0002020202020200020202020202020432D40
:1000B0003431202020202000202020202020436FC9
:1000C0006C6F7220202020200000000000240027F8
:1000D000002A0000000000250028002B000200007C
:1000E00000080002010000030407000000000000F7
:1000F00000000102040810204080010204081020C2
:10010000010204081020000000002300260029003E
:1001100004040404040404040202020202020303AD
:1001200003030303290C11241FBECFEFD8E0DEBF69
:10013000CDBF23E0A8E2B2E001C01D92AE3EB207FF
:10014000E1F712E0A0E0B1E0E6E3F9E202C00590D9
:100150000D92A832B107D9F710E0C3E9D0E004C08E
:100160002197FE010E94A112C239D107C9F70E944E
:100170002F0D0C9499140C9400002091E6033091FB
:10018000E70325303105E4F495E0929FF001939F59
:10019000F00D1124E553FC4F718360835383428338
:1001A00084832F5F3F4F3093E7032093E6038091D2
:1001B000E8039091E90301969093E9038093E803A3
:1001C0000895833081F028F4813099F08230A9F0CD
:1001D00008958730A9F08830C9F08430B1F4809157
:1001E00080008F7D03C0809180008F778093800096
:1001F000089584B58F7784BD089584B58F7DFBCF36
:100200008091B0008F778093B00008958091B00006
:100210008F7DF9CF1F93CF93DF93282F30E0F90123
:10022000E252FF4F8491F901EE50FF4FD491F90152
:10023000E05FFE4FC491CC23A9F0162F81110E94DC
:10024000E100EC2FF0E0EE0FFF1FED52FF4FA59104
:10025000B4918FB7F894EC91111108C0D095DE23BA
:10026000DC938FBFDF91CF911F910895DE2BF8CFE4
:10027000CF93DF9390E0FC01EE50FF4F2491805F1D
:100280009E4FFC0184918823C9F090E0880F991F4C
:10029000FC01E753FF4FA591B491FC01ED52FF4FD4
:1002A000C591D49161110DC09FB7F8948C912095A0
:1002B00082238C938881282328839FBFDF91CF914D
:1002C0000895623051F49FB7F8943C91822F809545
:1002D00083238C93E8812E2BEFCF8FB7F894EC918A
:1002E0002E2B2C938FBFEACFCF93809100018530C6
:1002F00021F08F3F61F1CF910895EDEDF0E0C491D1
:10030000C7FDF9CF61E085E00E943801CC2309F4F4
:100310008CC0C23009F0A1C08091B100887F82609A
:100320008093B10089EF8093B30088EE93E0A0E062
:10033000B0E08093F8029093F902A093FA02B09390
:10034000FB0280917000826080937000D4CF85E0C2
:1003500080930001EDEDF0E0C491CF3F61F2C13038
:1003600021F150F0C23009F43EC0C7FDC4CF61E0B6
:1003700085E00E943801CDCF14BC15BC84B58260E5
:1003800084BD85B5816085BDE5E1F1E0E491F0E0F3
:10039000EE0FFF1FED52FF4F85919491E7EFF0E0D4
:1003A000E491E093F702C0E0ADCF1092800010928C
:1003B000810080918100886080938100809181001C
:1003C000816080938100E5E1F1E0E491F0E0EE0FDF
:1003D000FF1FED52FF4F85919491E7EFF0E0E4911C
:1003E000E093F6028FCF1092B0001092B10080918E
:1003F000B00082608093B0008091B10081608093F2
:10040000B100E5E1F1E0E491F0E0EE0FFF1FED5205
:10041000FF4F859194919093F5028093F402E7EF5A
:10042000F0E0E491E093F3026DCF85B5887F8260C0
:1004300085BD89EF87BD88EE93E0A0E0B0E08093B2
:10044000000390930103A0930203B09303038091F0
:100450006E00826080936E004ECFC130F1F48091C7
:100460008100887F8160809381008FEC97E090937A
:1004700089008093880088EE93E0A0E0B0E080934C
:10048000FC029093FD02A093FE02B093FF028091C4
:100490006F00826080936F002ECFC23021F0C111B7
:1004A0002ACF8FECC7CF8FEC3ECF3FB7F894809127
:1004B000EF029091F002A091F102B091F20226B504
:1004C000A89B05C02F3F19F00196A11DB11D3FBF8C
:1004D000BA2FA92F982F8827BC01CD01620F711D5B
:1004E000811D911D42E0660F771F881F991F4A9555
:1004F000D1F708958F929F92AF92BF92CF92DF92E1
:10050000EF92FF926B017C010E9455024B015C014E
:10051000C114D104E104F104B9F00E945502681934
:1005200079098A099B09683E73408105910580F32A
:1005300021E0C21AD108E108F10888EE880E83E0B4
:10054000981EA11CB11CE4CFFF90EF90DF90CF90DC
:10055000BF90AF909F908F9008950895089508954B
:10056000AF92BF92CF92DF92EF92FF920F931F93C1
:10057000CF93DF936C017B018B01040F151FEB01FF
:100580005E01AE18BF08C017D10759F06991D601B6
:10059000ED91FC910190F081E02DC6010995892B28
:1005A00079F7C501DF91CF911F910F91FF90EF90E7
:1005B000DF90CF90BF90AF900895FC01538D448D94
:1005C000252F30E0842F90E0821B930B541710F0FE
:1005D000CF96089501970895FC01918D828D98170B
:1005E00061F0A28DAE0FBF2FB11D5D968C91928DE3
:1005F0009F5F9F73928F90E008958FEF9FEF089514
:10060000FC01918D828D981731F0828DE80FF11DDC
:10061000858D90E008958FEF9FEF0895FC01918DF7
:10062000228D892F90E0805C9F4F821B91098F73F0
:100630009927089584E093E00E940E0321E0892B1E
:1006400009F420E0822F089580E090E0892B29F0C2
:100650000E941A0381110C9400000895FC01A48DDE
:10066000A80FB92FB11DA35ABF4F2C91848D90E0D4
:1006700001968F739927848FA689B7892C93A089B7
:10068000B1898C91837080648C93938D848D981341
:1006900006C00288F389E02D80818F7D80830895D4
:1006A000EF92FF920F931F93CF93DF93EC0181E0C2
:1006B000888F9B8D8C8D98131AC0E889F989808169
:1006C00085FF15C09FB7F894EE89FF896083E8899C
:1006D000F98980818370806480839FBF81E090E08E
:1006E000DF91CF911F910F91FF90EF900895F62E1B
:1006F0000B8D10E00F5F1F4F0F731127E02E8C8DB5
:100700008E110CC00FB607FCFACFE889F9898081F9
:1007100085FFF5CFCE010E942E03F1CFEB8DEC0FBC
:10072000FD2FF11DE35AFF4FF0829FB7F8940B8F16
:10073000EA89FB8980818062CFCF0F931F93CF938B
:10074000DF938C01D0E0C0E0F801EC0FFD1F649155
:10075000662341F084E093E00E945003892B11F05E
:100760002196F2CFCE01DF91CF911F910F91089585
:10077000CF93DF93EC01888D8823B9F0AA89BB89D8
:10078000E889F9898C9185FD03C0808186FD0DC0C3
:100790000FB607FCF7CF8C9185FFF2CF808185FFE4
:1007A000EDCFCE010E942E03E9CFDF91CF910895C6
:1007B00020919802260F3327331F21323105ECF4A4
:1007C0002091BC02FC0190E080E0243069F082E0DE
:1007D0000895A09198022191AC0148585D4FA40F53
:1007E000B52FB11D2C930196861798F3809198022E
:1007F000680F6093980280E0089581E00895109258
:10080000BC0281E08093BE021092BD0261E082E1F1
:100810000E940A0161E083E10E940A01E9EBF0E035
:1008200080818E7F808380818D7F808388E4809328
:10083000B80085E48093BC000895CF93DF9391E0E6
:10084000909377028823B9F0C091B800D091BA0094
:100850008091BC008A7B8093BC0060E082E10E94B2
:100860000A0160E083E10E940A010E94FF03D09325
:10087000BA00C093B800DF91CF9108950895E09138
:10088000E9028091E802E81730F4F0E0EE5AFD4FFB
:10089000808190E008958FEF9FEF08959091E90295
:1008A0008091E8022FEF3FEF981748F4E92FF0E02E
:1008B000EE5AFD4F208130E09F5F9093E902C9011D
:1008C00008958091E8029091E902891B990B08959F
:1008D000CF92DF92EF92FF920F931F93CF93DF930C
:1008E0007C01CB018A0120915102222389F0EB0186
:1008F0006B01C40ED51ECC15DD0569F06991D701D9
:10090000ED91FC910190F081E02DC7010995F3CFA5
:10091000642F0E94D803C801DF91CF911F910F91DE
:10092000FF90EF90DF90CF900895CF93DF931F92C9
:10093000CDB7DEB76983209151022223F9F02091CF
:10094000E602203258F021E030E0FC0133832283BC
:1009500090E080E00F90DF91CF9108958091E702C1
:10096000E82FF0E0EF5CFD4F998190838F5F8093DB
:10097000E7028093E60281E090E0ECCF61E0CE01F7
:1009800001960E94D803F7CFCF92DF92EF92FF92A9
:100990000F931F93CF93DF93FC01C48181E0809379
:1009A0005102C09330021092E7021092E60281EAEF
:1009B00093E00E949504D091E602D13208F092C0F3
:1009C0000E9455026B017C018091BC02811165C0BF
:1009D00082E08093BC0281E08093BE028FEF80931F
:1009E000BB021092E002D093DF02E1E3F2E0AFEB52
:1009F000B2E080E0D81385C01092E1028091E1025C
:100A0000CC0FC82BC093E1028091BD02813009F068
:100A10007CC01092BD020E9455026B017C01809146
:100A2000E1028093BB008091730290917402A091C7
:100A30007502B0917602892B8A2B8B2B99F00E943C
:100A40005502009173021091740220917502309149
:100A500076026C197D098E099F090617170728076A
:100A60003907E0F18091BC0083FDD9CF85EC8093FC
:100A7000BC000E9455026B017C018091BC02823057
:100A800009F445C08091BB028F3F61F18091BB02A8
:100A9000803241F18091BB0225C080917302909118
:100AA0007402A0917502B0917602892B8A2B8B2B50
:100AB00009F48ACF0E9455020091730210917402CA
:100AC00020917502309176026C197D098E099F097B
:100AD000061717072807390708F076CF80917202AA
:100AE0000E941D041092E7021092E6021092510239
:100AF000DF91CF911F910F91FF90EF90DF90CF90FA
:100B0000089591919D938F5F75CF85EEB0CF8091C1
:100B1000730290917402A0917502B0917602892BB4
:100B20008A2B8B2B09F4A9CF0E94550200917302E6
:100B30001091740220917502309176026C197D0932
:100B40008E099F09061717072807390708F095CF60
:100B5000C5CFDC01ED91FD918081ED91FD919081FA
:100B6000ED91FD916C9163708E2309F064609F2379
:100B700009F06860E6ECF5E0E60FF11D6595659516
:100B80006D936D917D918D919D91099423C01AC0B3
:100B900012C016C010C01EC009C014C013C006C0C9
:100BA00019C009C00DC007C00DC014C0625070400C
:100BB000804090400BC0615070408040904006C023
:100BC0006E5F01C06F5F7F4F8F4F9F4F9E938E93DD
:100BD0007E936E9308958091AD039091AE030C9433
:100BE000A9058091AF039091B0030C94A905809161
:100BF000BC03823078F4F89481EB93E00E94A9055D
:100C00006091B8037091B9038091BA039091BB03CE
:100C100078940895F894F4CFCF92DF92EF92FF92F8
:100C20000F931F93CF93DF93C0902E02D0902F028B
:100C30000D2C000CEE08FF080E94F705C1E0D0E083
:100C40006C157D058E059F055CF00E94F705D0E0D0
:100C5000C0E0C616D706E806F90614F4C2E0D0E0F4
:100C6000E2EEF0E08491E6EFF0E00491E4E1F1E0FF
:100C70001491112311F181110E94E100E12FF0E0A4
:100C8000EE0FFF1FEA5FFE4FA591B491EC918091AA
:100C90002D020E2391F0811157C00E94F705709329
:100CA0002F0260932E02CE01DF91CF911F910F9101
:100CB000FF90EF90DF90CF90089580912D028111E9
:100CC00016C081E080932D022FB7F8948091EB023B
:100CD0009091EC02A091ED02B091EE022FBF8093B3
:100CE000290290932A02A0932B02B0932C022FB7D3
:100CF000F8948091EB029091EC02A091ED02B091FA
:100D0000EE022FBF4091290250912A0260912B02DE
:100D100070912C02841B950BA60BB70B853F91405D
:100D2000A105B10508F4B9CF809128028111B5CF92
:100D300081E0809328026AEF70E080E090E00E94FA
:100D40007A02C4E0D0E0A9CF80912802882329F05C
:100D50001092280210922D02A0CF64E670E080E08D
:100D600090E00E947A02C3E0D0E0F4CF089590E0D2
:100D700080E00895CF93DF93EC0161E088E00E946A
:100D8000380161E088E00E940A0161E089E00E9488
:100D9000380160E089E00E940A0188EE93E0C89F74
:100DA000B001C99F700DD89F700D1124072E000C43
:100DB000880B990B0E947A0261E088E00E9438015A
:100DC00060E088E00E940A0161E089E00E94380149
:100DD00060E089E0DF91CF910C940A01CF93DF931B
:100DE000C4E0D0E061E08AE00E94380161E08AE07E
:100DF0000E940A0161E08BE00E94380160E08BE014
:100E00000E940A0168EE73E080E090E00E947A029E
:100E100061E08AE00E94380160E08AE00E940A01F5
:100E200061E08BE00E94380160E08BE00E940A01E3
:100E300064EF71E080E090E00E947A02219791F6E1
:100E4000DF91CF9108950F931F93CF93DF93EC0120
:100E5000042F6B8711E019878885880F9F81946024
:100E6000892B2A8598E0299F90011124822B607F8D
:100E7000682BCE010E94C40419866885660F8A8596
:100E800028E0829FC0011124682B8F81682B8B85FD
:100E9000807F682BCE010E94C404011131C08FE80D
:100EA00090E00197F1F719878F8184606885660F5C
:100EB000682B8A8528E0829FC0011124682B8B85CE
:100EC00020E1829FC0011124682BCE010E94C4043E
:100ED00019866885660F8A8528E0829FC0011124E3
:100EE000682B8F81682B8B8520E1829FC0011124A4
:100EF000682BCE01DF91CF911F910F910C94C40408
:100F0000DF91CF911F910F9108951092C403109219
:100F1000C5039091C203891708F4982F8091C303E9
:100F2000861708F460E0E62FF0E0E55DFE4F608193
:100F3000690F606840E08DEB93E00E9423078FE823
:100F400090E00197F1F70895EDEBF3E0178210863A
:100F500040E061E0CF010E9423078BEF98E1019709
:100F6000F1F7089521E0FC012783108640E00E94FC
:100F700023078FE990E00197F1F781E090E0089571
:100F80000F931F93CF93DF938B011092C4031092A2
:100F9000C50398E0899FB0011124606440E08DEBA7
:100FA00093E00E9423078FE890E00197F1F7E801B2
:100FB000085F1F4F69918DEB93E00E94B207C01745
:100FC000D107C1F760E080E0DF91CF911F910F91D1
:100FD0000C948507FC0180819181009711F00C949D
:100FE00043130895FB0101900020E9F73197AF0109
:100FF000461B570BDC01ED91FC910280F381E02D43
:101000000994BC018DEB93E00C94F2070F931F93AE
:10101000CF93DF93EC0188819981009759F02A8161
:101020003B812617370730F081E0DF91CF911F9188
:101030000F9108958B016F5F7F4F0E94CC13009733
:1010400059F0998388831B830A832C813D81232B4C
:1010500059F7FC011082E8CF80E0E7CFEF92FF92D2
:101060000F931F93CF93DF93EC01FB01E080F1809E
:10107000E114F10411F10481158101151105A9F0A4
:101080008C819D81080F191FB801CE010E940608AE
:10109000882399F0288139818C819D81B701820F45
:1010A000931F0E9492141D830C83CE01DF91CF9178
:1010B0001F910F91FF90EF9008958881998100977B
:1010C00011F00E944313198218821D821C821B8218
:1010D0001A82EBCFEF92FF920F931F93CF93DF9380
:1010E000EC017B018A01BA010E940608288139813E
:1010F000811114C02115310519F0C9010E94431353
:10110000198218821D821C821B821A82CE01DF91F5
:10111000CF911F910F91FF90EF9008951D830C8345
:10112000B701C9010E949214F1CFFC011182108213
:101130001382128215821482FB0101900020E9F7CC
:101140003197AF01461B570B0C946A0885ED8093CD
:10115000BC008091730290917402A0917502B091CD
:1011600076020796A11DB11D23E0B695A795979528
:1011700087952A95D1F72091BC0024FD03C01092D9
:10118000BC020895409173025091740260917502FF
:1011900070917602452B462B472B69F30097A105EA
:1011A000B10541F02AE22A95F1F700C00197A109A3
:1011B000B109E1CF809172020C941D048F929F922D
:1011C000AF92BF92CF92DF92EF92FF920F931F9355
:1011D000CF93DF9300D0CDB7DEB7009779F18B01C5
:1011E0007C010E94F6114C01D12CC12CC814D904E9
:1011F0002CF5F701EC0DFD1DE491E9831A82F8014D
:10120000A480B580FFEFAF1ABF0AB501C8010E94E4
:101210000608882379F0F801208131818481958145
:10122000BE016F5F7F4F820F931F0E949214F801DF
:10123000B582A482FFEFCF1ADF0AD8CF0F900F90AC
:10124000DF91CF911F910F91FF90EF90DF90CF90A2
:10125000BF90AF909F908F9008950F931F93CF935F
:10126000DF9300D000D000D0CDB7DEB78C0161E6AF
:1012700071E0CE0101960E949508BE016F5F7F4F1D
:10128000C8010E94DE080E94A40760E080E00E947E
:1012900085074D815E8169817A818DEB93E00E94A3
:1012A000B0026BE171E081E00E94C00761E086E07E
:1012B0000E94850761E08DEB93E00E94B20763E234
:1012C00071E082E00E94C00761E088E00E9485072B
:1012D00062E08DEB93E00E94B20763E171E083E08E
:1012E0000E94C00761E08AE00E94850763E08DEB01
:1012F00093E00E94B2076BE071E084E00E94C007B7
:1013000061E08EE00E94850764E08DEB93E00E942F
:10131000B207CE0101960E94EA0726960FB6F8940E
:10132000DEBF0FBECDBFDF91CF911F910F9108950A
:101330001F920F920FB60F9211242F933F938F930A
:101340009F93AF93BF938091EB029091EC02A09199
:10135000ED02B091EE023091EA0223E0230F2D3727
:1013600058F50196A11DB11D2093EA028093EB026E
:101370009093EC02A093ED02B093EE028091EF0205
:101380009091F002A091F102B091F2020196A11D9C
:10139000B11D8093EF029093F002A093F102B093FD
:1013A000F202BF91AF919F918F913F912F910F903A
:1013B0000FBE0F901F90189526E8230F0296A11DCF
:1013C000B11DD2CF1F920F920FB60F9211242F93FF
:1013D0003F934F935F936F937F938F939F93AF93BD
:1013E000BF93EF93FF93E0910301F09104010995FE
:1013F000FF91EF91BF91AF919F918F917F916F91ED
:101400005F914F913F912F910F900FBE0F901F90C2
:1014100018951F920F920FB60F9211242F933F939E
:101420004F935F936F937F938F939F93AF93BF93EC
:10143000EF93FF93E0910101F09102010995FF9173
:10144000EF91BF91AF919F918F917F916F915F913C
:101450004F913F912F910F900FBE0F901F901895B5
:101460001F920F920FB60F9211242F933F934F9319
:101470005F936F937F938F939F93AF93BF93EF93FC
:10148000FF938091F8029091F902A091FA02B09135
:10149000FB02892B8A2B8B2BD1F19091F302E091E7
:1014A000F402F091F5028081892780838091F8020F
:1014B0009091F902A091FA02B091FB021816190658
:1014C0001A061B069CF48091F8029091F902A091F3
:1014D000FA02B091FB020197A109B1098093F802C9
:1014E0009093F902A093FA02B093FB02FF91EF915F
:1014F000BF91AF919F918F917F916F915F914F912C
:101500003F912F910F900FBE0F901F9018958091D3
:101510000001EDEDF0E0E4919FEF90930001E130E8
:1015200051F030F0E23069F060E00E940A01DECF55
:1015300010926E00F9CF90916F009D7F90936F0095
:10154000F3CF909170009D7F9093700091E0909305
:10155000B0009091B100987F94609093B100109288
:10156000B300E2CF1F920F920FB60F9211242F9368
:101570003F934F935F936F937F938F939F93AF931B
:10158000BF93EF93FF9384E093E00E942E03FF91BB
:10159000EF91BF91AF919F918F917F916F915F91EB
:1015A0004F913F912F910F900FBE0F901F90189564
:1015B0001F920F920FB60F9211242F938F939F9328
:1015C000EF93FF93E0911403F09115038081E09174
:1015D0001A03F0911B0382FD1BC0908180911D03B3
:1015E0008F5F8F7320911E03821741F0E0911D03DE
:1015F000F0E0EC5FFC4F958F80931D03FF91EF911E
:101600009F918F912F910F900FBE0F901F90189563
:101610008081F4CF1F920F920FB60F9211242F9357
:101620003F934F935F936F937F938F939F93AF936A
:10163000BF93EF93FF938091B900887F803609F4C0
:101640004AC0F0F5883209F4A7C018F5803109F4D2
:101650009BC0B8F4882309F4F9C0883009F494C019
:10166000FF91EF91BF91AF919F918F917F916F917A
:101670005F914F913F912F910F900FBE0F901F9050
:101680001895883109F488C0803251F78093BB02E5
:1016900014C0803409F49DC040F48033B9F388331A
:1016A000F9F68093BB0285ECB0C0803509F485C0A3
:1016B000883509F496C0883499F60E94A608D0CFE0
:1016C000883909F48CC038F5883729F050F4883609
:1016D00011F0803729F683E08093BC021092BA02A1
:1016E00057C0883809F47BC0803919F0803809F078
:1016F000B7CF8091BA02803208F071C0E091BA028F
:1017000081E08E0F8093BA028091BB00F0E0E65634
:10171000FD4F80833DC0803B39F0E0F4803A09F40E
:1017200079C0883A09F09CCF84E08093BC02109283
:10173000990210929802E091E402F091E502099575
:101740008091980281110FC081E0809398021092DD
:10175000780209C0803C09F4A6CF883C09F4A3CFE5
:10176000883B09F07DCFE091990281E08E0F809354
:101770009902F0E0E858FD4F80818093BB00909182
:1017800099028091980229C08091E1028093BB0068
:1017900085EC8093BC0064CF9091E0028091DF02E1
:1017A000981758F5E091E00281E08E0F8093E002F7
:1017B000F0E0E154FD4F8081E9CFE091E00281E06B
:1017C0008E0F8093E0028091BB00F0E0E154FD4F6A
:1017D00080839091E0028091DF029817C8F285E83B
:1017E000D8CFE091E00281E08E0F8093E0028091FB
:1017F000BB00F0E0E154FD4F80838091BE02811177
:101800005CCF81E08093BD0284EA8093BC0010929B
:10181000BC0226CF85EC8093BC001092BC02809164
:10182000BA02803230F4E091BA02F0E0E656FD4FA1
:1018300010826091BA0270E0E091E202F091E3025E
:101840008AE992E009951092BA020ACF1092BB027F
:1018500034CFCF93DF93109207031092060388EEE4
:1018600093E0A0E0B0E08093080390930903A09375
:101870000A03B0930B0323E331E030930503209375
:10188000040325EC30E0309311032093100324EC83
:1018900030E0309313032093120320EC30E03093B8
:1018A00015032093140321EC30E0309317032093A9
:1018B000160322EC30E0309319032093180326EC32
:1018C00030E030931B0320931A0310921D031092F3
:1018D0001E0310921F03109220031092A403109273
:1018E000A3038093A5039093A603A093A703B093AB
:1018F000A80385E491E09093A2038093A103EBEC0D
:10190000F3E084EE93E021E631E03183208313821B
:101910001282148235968E179F07B9F71092E7034B
:101920001092E6031092E5031092E4031092E9038B
:101930001092E8031092C0031092BF0387E591E074
:101940009093BE038093BD0387E28093C1038FE031
:101950008093C20381E08093C3031092C40310926A
:10196000C5031092C6031092C7031092C8031092C9
:10197000C9031092CA0362E083E00E94380162E06A
:1019800082E00E943801E3E1F1E0E491F0E0EE0F43
:10199000FF1FEA5FFE4FA591B491B093B203A093ED
:1019A000B103E5EFF0E044914093B503E2E1F1E0EB
:1019B000E491F0E0EE0FFF1FEA5FFE4FC591D49176
:1019C000D093B403C093B303E4EFF0E0E491E09369
:1019D000B6031092B8031092B9031092BA03109292
:1019E000BB032BE33FE1C9010197F1F79C91842FE1
:1019F000892391E009F490E08881E82309F092605E
:101A000021EB33E09093B7033093B0032093AF03FF
:101A100081EF95E090930401809303018091690028
:101A2000837F846080936900E99A81E08093BC039E
:101A30003093AE032093AD038BEE95E090930201BB
:101A400080930101809169008C7F8160809369009F
:101A5000E89A82E08093BC03DF91CF910895CF9301
:101A6000DF93CDB7DEB7E3970FB6F894DEBF0FBEB6
:101A7000CDBF789484B5826084BD84B5816084BD17
:101A800085B5826085BD85B5816085BD80916E001C
:101A9000816080936E00109281008091810082604D
:101AA000809381008091810081608093810080918A
:101AB00080008160809380008091B1008460809379
:101AC000B1008091B00081608093B00080917A0075
:101AD000846080937A0080917A00826080937A009B
:101AE00080917A00816080937A0080917A0080688A
:101AF00080937A001092C100E0911403F0911503D5
:101B000082E08083E0911003F09111031082E09154
:101B10001203F09113038FEC808310921C03E09169
:101B20001803F091190386E08083E0911603F09189
:101B30001703808180618083E0911603F091170381
:101B4000808188608083E0911603F0911703808183
:101B500080688083E0911603F091170380818F7D68
:101B6000808361E088E00E94380161E089E00E94A2
:101B7000380161E08AE00E94380161E08BE00E9458
:101B8000380161E085E00E94380161E087E00E9451
:101B9000380160E084E00E9438011092E90210925E
:101BA000E8021092E7021092E6020E94FF038DEA1B
:101BB00092E09093E5028093E4028EEA92E09093A3
:101BC000E3028093E20260E08DEB93E00E94C404A4
:101BD00062E370E080E090E00E947A021092C40319
:101BE0001092C50341E060E38DEB93E00E94230770
:101BF0008BE991E40197F1F741E060E38DEB93E02D
:101C00000E94230783E592E00197F1F741E060E34A
:101C10008DEB93E00E9423070FE810E0C8010197C5
:101C2000F1F741E060E28DEB93E00E942307C801E9
:101C30000197F1F740E068E28DEB93E00E94230703
:101C4000C8010197F1F71092C4031092C503609187
:101C5000C903862F84608093C9036C6040E08DEBDC
:101C600093E00E942307C8010197F1F70E94A4079F
:101C70001092C4031092C5036091CA03862F82603C
:101C80008093CA03666040E08DEB93E00E942307D7
:101C9000C8010197F1F781E08093C70368E08DEBFD
:101CA00093E00E94C40450E040E068EB70E090E0F4
:101CB00080E00E94BD0041E050E067EA70E081E012
:101CC00090E00E94BD0042E050E066E970E081E0F3
:101CD00090E00E94BD0043E050E065E870E090E0D5
:101CE00080E00E94BD0044E050E064E770E081E0E5
:101CF00090E00E94BD001092E7031092E60360900E
:101D0000CB037090CC038EE690E00E949D036FE5BC
:101D100071E084E093E00E94F2070BEC13E0D12C19
:101D2000C12CAAE08A2E912CA12CB12C8091E80321
:101D30009091E903C816D9060CF08BC0F12CE12C68
:101D4000D80114968C918E151F0449F044F08BE64F
:101D500090E00E949D03BFEFEB1AFB0AF1CFF80160
:101D6000E080F1801BA21AA21DA21CA21FA21EA22B
:101D700050E040E061E671E0CE0182960E946A0880
:101D8000BE016E5D7F4FC7010E94DE084EA15FA1BC
:101D90006AA17BA184E093E00E94B00288E690E013
:101DA0000E949D03D80112962D903C90032C000CAC
:101DB0004408550857FE37C06DE284E093E00E9466
:101DC000500322273327A901221933094409550951
:101DD00019A2FE01B1967F01CA01B901A5019401C2
:101DE0000E947F12605DD7016E937D012115310540
:101DF0004105510589F7E114F10429F0B70184E0A8
:101E000093E00E94F2076FE571E084E093E00E94A6
:101E1000F207CE0182960E94EA07BFEFCB1ADB0AD7
:101E20000B5F1F4F83CFA201910119A2FE01B19652
:101E30007F01CA01B901A50194010E947F12605D72
:101E4000D7016E937D01211531054105510589F7B3
:101E5000D2CFC3010E942D098E010F5F1F4FE4E214
:101E60008E2E912CF8EEAF2EF3E0BF2E0E940C06C2
:101E70006C018230910509F450C148F4019709F4CE
:101E800027C1C114D10409F479C1F12C53C00397BF
:101E900051F184E0C816D104A1F78091E603909136
:101EA000E70325E0289FF001299FF00D1124DF01B1
:101EB000A553BC4F14964C91442339F318161906B8
:101EC00024F70197E653FC4F50E08F3F9807E9F263
:101ED000208130E02F5F3F4F35972417350709F4F5
:101EE0003EC10197F2CF8091E6039091E7030196FE
:101EF0002091E8033091E9038217930734F645E017
:101F0000489F9001499F300D1124F901E553FC4F82
:101F100044812A533C4FF901248130E02F5F3F4F29
:101F20004217130609F0B1CF9093E7038093E603BD
:101F3000FF24F3948091E6039091E70325E0289F26
:101F4000F001299FF00D1124E553FC4F628073804E
:101F5000808191810E942D096114710409F40EC1E0
:101F600043E0C416D10409F009C1F11007C16A9415
:101F7000672809F003C10E94A40760E080E00E9486
:101F8000850762E671E08DEB93E00E94F2076FE552
:101F900071E08DEB93E00E94F2070E940C06823004
:101FA000910509F4FAC008F0E2C0019709F4F3C002
:101FB00093E09F150CF4F8C0AEEFE12CFA1609F48B
:101FC000F7C061E080E00E94850763E771E0CE0121
:101FD00082960E94950819A618A61BA61AA61DA6E9
:101FE0001CA64AE0B8018F2D0F2C000C990B0E9403
:101FF000FF11F80101900020E9F73197AF01401B74
:10200000510BB801CE0188960E946A0868E771E01A
:10201000CE018E960E9495081A8219821C821B821C
:102020001E821D826EA57FA56115710529F04AA942
:102030005BA9C8010E946A08BE01685D7F4FC801A4
:102040000E942E08BE016E5D7F4F0E942E08FC018B
:1020500044815581608171818DEB93E00E94B002D3
:102060006FE571E08DEB93E00E94F207C8010E94DA
:10207000EA07CE018E960E94EA07CE0188960E945A
:10208000EA07CE0182960E94EA0766E970E080E0E6
:1020900090E00E947A02EE2009F47FCF0E94740142
:1020A0000E94A40760E080E00E948507F1E0FF162F
:1020B00009F4BDC0FF150CF47EC0FF2009F48BC0ED
:1020C0008CEB91E00E94010835EAE32EF12C8AC0E6
:1020D0004091E6035091E703141615060CF0D5CE97
:1020E000CA01019765E0649F9001659F300D11243E
:1020F000F901E653FC4F25533C4F8F3F980709F4F5
:10210000C4CE5081D90114964C91541708F4BDCE19
:102110003597541721F10197F0CF8091E603909104
:10212000E7034091E8035091E90325E0289FF0017F
:10213000299FF00D1124E553FC4F0196DF01841710
:1021400095070CF0A2CE19963C911997248132176D
:1021500008F49BCE321308C08F3F980729F0909364
:10216000E7038093E60391CE01961596E8CF83307E
:10217000910509F438C1049709F01ACF80E090E086
:10218000892B09F473CE0E941A03882309F467CEC1
:102190000E94000064CEFA940BCFF394E12C93E0FC
:1021A0009F150CF00ECF01C0E12C83E0F82E09CF73
:1021B000FF24FA9406CF22E0F21609F441C043E06E
:1021C000F4127ECF8EEA91E00E9401084DE0E42EE9
:1021D00042E0F42E07C084E891E00E94010872ED0D
:1021E000E72EF12C61E080E00E94850763E271E058
:1021F00082E00E94C00761E083E00E94850762E000
:102200008DEB93E00E94B20761E085E00E948507B4
:102210008AEC91E00E9401080E940C06833091052F
:10222000C1F0049709F4AACF0E947401F5CF82E9A6
:1022300091E00E94010861E1E62EFF24F394D2CFE1
:1022400080EA91E00E94010850E7E52EFF24F39414
:10225000C9CF0E9474010E94A40786ED91E00E94FC
:102260000108C7010A97B4010E946B126B017C013F
:10227000362E61E087E00E940A018AE090E00E9429
:10228000BA060E94EE06EA9C2001EB9C500CFA9CD8
:10229000500C1124052C000C6608770822E0E22E71
:1022A000F12C60E375E780E090E00E947A0286E01E
:1022B00090E00E94BA06EC14FD0414F00E94740130
:1022C000C301B2010E947A020E9474018FEFE81AE2
:1022D000F80A8EEF8E0D831520F360E087E00E94F0
:1022E0000A010E94A40784EE91E00E94010861E0C7
:1022F00080E00E94850763E271E082E00E94C007EF
:1023000061E083E00E94850762E08DEB93E00E942C
:10231000B20761E085E00E94850789EF91E00E94A5
:1023200001080E94A4070E940C068330910531F039
:10233000049709F423CF0E947401F5CF0E94740121
:102340008CE092E00E94010861E087E00E940A01AF
:102350000E94EE0690ECF92E8FE090E00E94BA0603
:1023600068E97AE380E090E00E947A02FA94F11042
:10237000F3CF0E94740160E087E00E940A010E948E
:10238000A40760E080E00E94850786E192E00E9459
:10239000010861E080E00E94850763E271E082E06D
:1023A0000E94C00761E083E00E94850762E08DEB38
:1023B00093E00E94B20761E085E00E9485078AEC05
:1023C00091E00E9401080E94A4070E940C0683303D
:1023D000910531F0049709F4D1CE0E947401F5CF34
:1023E0000E947401CBCEEE24E394D9CEFC0105907B
:1023F0000020E9F7809590958E0F9F1F0895BB27C9
:102400004A3031F4992322F4BDE2909581959F4F93
:102410000C940B12BB27FB015527AA27880F991F85
:10242000AA1FA41710F0A41B83955051B9F7A05D03
:10243000AA3308F0A95DA193009779F7B111B19380
:102440001192CB010C942412DC01FC01672F7191D5
:102450007723E1F7329704C07C916D93708362918A
:10246000AE17BF07C8F308952F923F924F925F9225
:102470006F927F928F929F92AF92BF92CF92DF9294
:10248000EF92FF920F931F93CF93DF93CDB7DEB7F9
:10249000CA1BDB0B0FB6F894DEBF0FBECDBF09948D
:1024A0002A88398848885F846E847D848C849B84E4
:1024B000AA84B984C884DF80EE80FD800C811B81F2
:1024C000AA81B981CE0FD11D0FB6F894DEBF0FBE21
:1024D000CDBFED010895AA1BBB1B51E107C0AA1F88
:1024E000BB1FA617B70710F0A61BB70B881F991FB5
:1024F0005A95A9F780959095BC01CD010895A1E268
:102500001A2EAA1BBB1BFD010DC0AA1FBB1FEE1F6D
:10251000FF1FA217B307E407F50720F0A21BB30BB8
:10252000E40BF50B661F771F881F991F1A9469F734
:1025300060957095809590959B01AC01BD01CF0190
:102540000895EE0FFF1F0590F491E02D09940F936D
:102550001F93CF93DF938230910510F482E090E0D7
:10256000E091EC03F091ED0330E020E0B0E0A0E07A
:10257000309799F42115310509F44AC0281B390B0D
:1025800024303105D8F58A819B816115710589F167
:10259000FB0193838283FE0111C04081518102813E
:1025A000138148175907E0F04817590799F4109715
:1025B00061F012960C93129713961C933296CF01EA
:1025C000DF91CF911F910F9108950093EC03109329
:1025D000ED03F4CF2115310551F04217530738F0C0
:1025E000A901DB019A01BD01DF01F801C1CFEF01B3
:1025F000F9CF9093ED038093EC03CDCFFE01E20F72
:10260000F31F819391932250310939832883D7CFC7
:102610002091EA033091EB03232B41F42091070131
:10262000309108013093EB032093EA0320910501D8
:10263000309106012115310541F42DB73EB7409187
:10264000090150910A01241B350BE091EA03F09136
:10265000EB03E217F307A0F42E1B3F0B28173907F3
:1026600078F0AC014E5F5F4F2417350748F04E0FEE
:102670005F1F5093EB034093EA03819391939FCFA5
:10268000F0E0E0E09CCFCF93DF930097E9F0FC010E
:10269000329713821282A091EC03B091ED03ED0109
:1026A00030E020E01097A1F420813181820F931F48
:1026B0002091EA033091EB032817390709F061C034
:1026C000F093EB03E093EA03DF91CF910895EA01E1
:1026D000CE17DF07E8F54A815B819E014115510560
:1026E000B1F7E901FB83EA8349915991C40FD51FE2
:1026F000EC17FD0761F4808191810296840F951F8C
:10270000E90199838883828193819B838A83F0E0A6
:10271000E0E012968D919C9113970097B9F52D9159
:102720003C911197CD010296820F931F2091EA03ED
:102730003091EB032817390739F6309751F510928D
:10274000ED031092EC03B093EB03A093EA03BCCF2C
:10275000D383C28340815181840F951FC817D90745
:1027600061F44E5F5F4F88819981480F591F5183F3
:1027700040838A819B81938382832115310509F0EF
:10278000B0CFF093ED03E093EC039ECFFD01DC01AD
:10279000C0CF13821282D7CFB0E0A0E0E2EDF3E128
:1027A0000C9436128C01009751F4CB010E94A712B1
:1027B0008C01C801CDB7DEB7E0E10C945212FC01E8
:1027C000E60FF71F9C0122503109E217F30708F4C6
:1027D0009DC0D901CD91DC911197C617D70798F00C
:1027E000C530D10530F3CE0104978617970708F35B
:1027F000C61BD70B2297C193D1936D937C93CF01C6
:102800000E944313D6CF5B01AC1ABD0A4C018C0E5B
:102810009D1EA091EC03B091ED03512C412CF12CA5
:10282000E12C109731F58091EA039091EB03881524
:10283000990509F05CC04616570608F058C080910B
:10284000050190910601009741F48DB79EB7409124
:10285000090150910A01841B950BE817F90708F04C
:1028600055C0F093EB03E093EA03F90171836083B1
:10287000A0CF8D919C91119712966C901297139600
:102880007C901397A815B90559F56C0142E0C40E68
:10289000D11CCA14DB0420F1AC014A195B09DA012E
:1028A0001296159780F06282738251834083D9011A
:1028B0006D937C93E114F10471F0D7011396FC93AE
:1028C000EE93129776CF22968C0F9D1FF90191837C
:1028D0008083F301EFCFF093ED03E093EC0369CF36
:1028E0004816590608F42C017D01D3019ACFCB017B
:1028F0000E94A7127C01009749F0AE01B8010E9426
:102900008914C8010E944313870153CF10E000E0EF
:1029100050CFFB01DC0102C001900D9241505040AC
:10292000D8F70895FB01DC0101900D920020E1F73A
:062930000895F894FFCFAA
:10293600FFAF02AF020000EE0380000000110A04A0
:102946000A110000080C1E1F1E0C080002060F1FAD
:102956000F0602010101050D1F0C0400401454006E
:102966000000005003B002DD02B8030E03EC0200C3
:10297600030000000095046804B7063E0461044E97
:10298600043F0400000000B207B002B706B6060D09
:102996000A00432D343120446576656C6F706D6591
:1029A6006E74002073747000507573682F50756CC8
:1029B6006C3A2000432D34312C202B302050757377
:1029C6006800432D34312C202B312050757368005C
:1029D600432D34312C202B32205075736800432D43
:1029E60034312C202B33205075736800432D34313D
:1029F6002C202D312050756C6C00746F207374611F
:102A060072742E2E2E00446576656C6F70696E6743
:102A16002E2E2E00446576656C6F706D656E742083
:102A260046696E697368656400746F2073746172B9
:102A36007420666978696E672E2E2E00466978695D
:102A46006E672E2E2E0050726F6365737320466973
:082A56006E69736865640000FD
:00000001FF
