:100000000C945D000C947A000C947A000C947A00A5
:100010000C947A000C947A000C947A000C94E5000D
:100020000C947A000C947A000C947A000C947A0068
:100030000C947A000C947A000C947A000C947A0058
:100040000C949B000C947A000C947A000C947A0027
:100050000C947A000C947A000C947A000C947A0038
:100060000C947A000C947A00000000080002010051
:100070000003040700000000000000000200000070
:1000800000250028002B0000000000240027002A83
:100090000004040404040404040202020202020331
:1000A000030303030301020408102040800102043B
:1000B0000810200102040810200011241FBECFEFF9
:1000C000D8E0DEBFCDBF11E0A0E0B1E0E2E0F4E0B7
:1000D00002C005900D92A230B107D9F721E0A2E04D
:1000E000B1E001C01D92AA31B207E1F70E94A6015A
:1000F0000C94FF010C94000090E0FC01EB55FF4FC5
:1001000024918F569F4FFC018491882399F090E0B1
:10011000880F991FFC01E957FF4FA591B491FC018D
:10012000E358FF4F859194918FB7F894EC91E22BAF
:10013000EC938FBF08951F920F920FB60F92112468
:100140002F933F938F939F93AF93BF93809116010B
:1001500090911701A0911801B091190130911501EA
:1001600023E0230F2D3758F50196A11DB11D2093D3
:1001700015018093160190931701A0931801B09375
:1001800019018091110190911201A0911301B09178
:1001900014010196A11DB11D8093110190931201CC
:1001A000A0931301B0931401BF91AF919F918F91D0
:1001B0003F912F910F900FBE0F901F90189526E83A
:1001C000230F0296A11DB11DD2CF1F920F920FB621
:1001D0000F9211242F933F938F939F93AF93BF93CD
:1001E000EF93FF9380910D0190910E01A0910F016B
:1001F000B0911001892B8A2B8B2BA1F190910C01CE
:100200008091000089278093000080910D019091DA
:100210000E01A0910F01B0911001181619061A06CF
:100220001B069CF480910D0190910E01A0910F018D
:10023000B09110010197A109B10980930D0190932C
:100240000E01A0930F01B0931001FF91EF91BF91A8
:10025000AF919F918F913F912F910F900FBE0F9073
:100260001F90189580910001ECE7F0E0E4919FEF7A
:1002700090930001E13009F431C068F1E23009F4F3
:1002800033C090E0FC01E859FF4F2491FC01EB558D
:10029000FF4F3491FC01EF56FF4FE491EE23A9F29A
:1002A000222351F0233009F43AC078F5213009F4C3
:1002B0003CC0223009F43DC0F0E0EE0FFF1FE358D0
:1002C000FF4FA591B4918FB7F894EC9130953E23F0
:1002D0003C938FBFBACF10926E00D3CF90916F0036
:1002E0009D7F90936F00CDCF909170009D7F9093F4
:1002F000700091E09093B0009091B100987F94606D
:100300009093B1001092B300BCCF2730A9F02830F1
:10031000C9F0243089F6809180008F7D03C08091E0
:1003200080008F7780938000C7CF84B58F7784BD9E
:10033000C3CF84B58F7DFBCF8091B0008F77809342
:10034000B000BACF8091B0008F7DF9CF789484B59A
:10035000826084BD84B5816084BD85B5826085BDC1
:1003600085B5816085BD80916E00816080936E004F
:100370001092810080918100826080938100809141
:1003800081008160809381008091800081608093F2
:1003900080008091B10084608093B1008091B000B2
:1003A00081608093B00080917A00846080937A00AD
:1003B00080917A00826080937A0080917A008160D7
:1003C00080937A0080917A00806880937A001092FE
:1003D000C10088E00E947C0089E00E947C008AE0E5
:1003E0000E947C008BE00E947C0082E00E947C00E6
:1003F000C0E0D0E02097F1F30E940000FBCFF8941A
:02040000FFCF2C
:02040200FF00F9
:00000001FF
