:020000040000FA
:100000000C9463000C94B5070C948E070C948B0031
:100010000C948B000C948B000C948B000C94DC07DC
:100020000C948B000C948B000C948B000C948B0024
:100030000C948B000C948B000C948B000C948B0014
:100040000C9444070C948B000C948B000C948B0044
:100050000C948B000C948B000C948B000C948B00F4
:100060000C945E080C948B00020000000024002712
:10007000002A0000000000250028002B00000000DE
:100080000800020100000304070000000000000057
:100090000001020408102040800102040810200121
:1000A000020408102000000000230026002900049C
:1000B000040404040404040202020202020303030F
:1000C000030303007D0911241FBECFEFD8E0DEBF7C
:1000D000CDBF23E0A8E4B2E001C01D92A834B2076E
:1000E000E1F712E0A0E0B1E0EEEBF0E202C0059033
:1000F0000D92A834B107D9F710E0C3E6D0E004C0F0
:100100002197FE010E94650EC236D107C9F70E94F1
:10011000100A0C945D100C940000833081F028F4D8
:10012000813099F08230A9F008958730A9F08830A5
:10013000C9F08430B1F4809180008F7D03C080913C
:1001400080008F7780938000089584B58F7784BD79
:10015000089584B58F7DFBCF8091B0008F77809319
:10016000B00008958091B0008F7DF9CFCF93DF93D9
:10017000EFE7F0E08491E3E9F0E0D491E1EBF0E027
:10018000C491CC23A1F081110E948D00EC2FF0E0EE
:10019000EE0FFF1FEB55FF4FA591B491EC91ED23AE
:1001A00081E090E009F480E0DF91CF91089580E054
:1001B00090E0FACF1F93CF93DF93282F30E0F9011F
:1001C000E358FF4F8491F901EF56FF4FD491F901A5
:1001D000E155FF4FC491CC23A9F0162F81110E9445
:1001E0008D00EC2FF0E0EE0FFF1FED58FF4FA591B3
:1001F000B4918FB7F894EC91111108C0D095DE231B
:10020000DC938FBFDF91CF911F910895DE2BF8CF44
:10021000CF93DF9390E0FC01EF56FF4F249181557F
:100220009F4FFC0184918823D1F090E0880F991FA3
:10023000FC01E759FF4FA591B491FC01ED58FF4F28
:10024000C591D491623071F49FB7F8943C91822F9C
:10025000809583238C93E8812E2B28839FBFDF9189
:10026000CF9108958FB7F894EC912E2B2C938FBFDC
:10027000F6CF3FB7F8948091180390911903A0919D
:100280001A03B0911B0326B5A89B05C02F3F19F098
:100290000196A11DB11D3FBFBA2FA92F982F882706
:1002A000BC01CD01620F711D811D911D42E0660FE1
:1002B000771F881F991F4A95D1F708958F929F92B3
:1002C000AF92BF92CF92DF92EF92FF926B017C01CF
:1002D0000E9439014B015C01C114D104E104F10415
:1002E000B9F00E943901681979098A099B09683EA9
:1002F00073408105910580F321E0C21AD108E1081D
:10030000F10888EE880E83E0981EA11CB11CE4CF92
:10031000FF90EF90DF90CF90BF90AF909F908F9025
:1003200008950895089508950895AF92BF92CF92C9
:10033000DF92EF92FF920F931F93CF93DF936C01A5
:100340007B018B01040F151FEB015E01AE18BF0886
:10035000C017D10759F06991D601ED91FC91019038
:10036000F081E02DC6010995892B79F7C501DF9150
:10037000CF911F910F91FF90EF90DF90CF90BF90A2
:10038000AF9008952091BA02260F3327331F2132F0
:100390003105ECF42091DE02FC0190E080E0243095
:1003A00069F082E00895A091BA022191AC0146560D
:1003B0005D4FA40FB52FB11D2C930196861798F3AE
:1003C0008091BA02680F6093BA0280E0089581E0DC
:1003D00008951092DE0281E08093E0021092DF0225
:1003E00061E082E10E94DA0061E083E10E94DA00CC
:1003F000E9EBF0E080818E7F808380818D7F808338
:1004000088E48093B80085E48093BC000895CF937E
:10041000DF9391E0909399028823B9F0C091B800DE
:10042000D091BA008091BC008A7B8093BC0060E0D0
:1004300082E10E94DA0060E083E10E94DA000E941B
:10044000E901D093BA00C093B800DF91CF9108952D
:100450000895E091120380911103E81730F4F0E061
:10046000EC58FD4F808190E008958FEF9FEF089545
:1004700090911203809111032FEF3FEF981748F4EA
:10048000E92FF0E0EC58FD4F208130E09F5F909322
:100490001203C90108958091110390911203891BE1
:1004A000990B0895CF92DF92EF92FF920F931F93D3
:1004B000CF93DF937C01CB018A0120917302222329
:1004C00089F0EB016B01C40ED51ECC15DD0569F07A
:1004D0006991D701ED91FC910190F081E02DC70168
:1004E0000995F3CF642F0E94C201C801DF91CF911B
:1004F0001F910F91FF90EF90DF90CF900895CF93D1
:10050000DF931F92CDB7DEB7698320917302222358
:10051000F9F020910F03203258F021E030E0FC0187
:100520003383228390E080E00F90DF91CF91089594
:1005300080911003E82FF0E0ED5AFD4F99819083F0
:100540008F5F8093100380930F0381E090E0ECCFE6
:1005500061E0CE0101960E94C201F7CFCF92DF92F7
:10056000EF92FF920F931F93CF93DF93FC01C4810F
:1005700081E080937302C093520210921003109294
:100580000F038CE193E00E947F02D0910F03D132E0
:1005900008F092C00E9439016B017C018091DE025B
:1005A000811165C082E08093DE0281E08093E002E9
:1005B0008FEF8093DD0210920203D0930103E3E5F5
:1005C000F2E0A1EEB2E080E0D81385C01092030300
:1005D00080910303CC0FC82BC09303038091DF02EB
:1005E000813009F07CC01092DF020E9439016B015A
:1005F0007C01809103038093BB00809195029091D0
:100600009602A0919702B0919802892B8A2B8B2B8E
:1006100099F00E9439010091950210919602209163
:100620009702309198026C197D098E099F0906176F
:10063000170728073907E0F18091BC0083FDD9CF67
:1006400085EC8093BC000E9439016B017C01809194
:10065000DE02823009F445C08091DD028F3F61F1F6
:100660008091DD02803241F18091DD0225C08091D0
:10067000950290919602A0919702B0919802892BD1
:100680008A2B8B2B09F48ACF0E94390100919502A5
:100690001091960220919702309198026C197D0971
:1006A0008E099F09061717072807390708F076CF24
:1006B000809194020E9407021092100310920F037F
:1006C00010927302DF91CF911F910F91FF90EF90E5
:1006D000DF90CF90089591919D938F5F75CF85EEB8
:1006E000B0CF8091950290919602A0919702B0911F
:1006F0009802892B8A2B8B2B09F4A9CF0E943901F0
:1007000000919502109196022091970230919802E3
:100710006C197D098E099F090617170728073907E5
:1007200008F095CFC5CF2F923F924F925F926F9274
:100730007F928F929F92AF92BF92CF92DF92EF9271
:10074000FF921F93CF93DF936C01D0E0C0E038EEAF
:10075000832E33E0932EA12CB12C4FEC442E47E096
:10076000542E58E6652E50E0752E64EB262E60E080
:10077000362E76E9E72E70E0F72ECC15DD0509F46C
:10078000D4C080910101853029F5F301149117FD42
:10079000BCC061E085E00E940801112309F488C013
:1007A000123009F099C08091B100887F82608093F7
:1007B000B10089EF8093B300809207039092080301
:1007C000A0920903B0920A03809170008260809326
:1007D00070009BC08F3F09F098C085E080930101B5
:1007E000F30114911F3F09F490C0113019F150F03A
:1007F000123009F43CC017FD88C061E085E00E941A
:100800000801CECF14BC15BC84B5826084BD85B50B
:10081000816085BDF1018491E82FF0E0EE0FFF1FAC
:10082000ED58FF4F85919491F7018491809349028F
:1008300010E0AFCF10928000109281008091810073
:100840008860809381008091810081608093810025
:10085000F1018491E82FF0E0EE0FFF1FED58FF4FFC
:1008600085919491F70184918093480292CF1092E0
:10087000B0001092B1008091B00082608093B0000F
:100880008091B10081608093B100F1018491E82FE3
:10089000F0E0EE0FFF1FED58FF4F8591949190937C
:1008A000050380930403F70184918093060371CFBD
:1008B00085B5887F826085BD89EF87BD80924E02B5
:1008C00090924F02A0925002B092510280916E001D
:1008D000826080936E0019C01130F9F4809181001C
:1008E000887F8160809381005092890040928800C7
:1008F00080924A0290924B02A0924C02B0924D021A
:1009000080916F00826080936F006AEF70E080E0FA
:1009100090E00E945E01219630CF123021F011113B
:10092000F4CF8FECCACF8FEC45CFDF91CF911F91E1
:10093000FF90EF90DF90CF90BF90AF909F908F90FF
:100940007F906F905F904F903F902F900895DC01C3
:10095000ED91FD918081ED91FD919081ED91FD9161
:100960006C9163708E2309F064609F2309F06860C6
:10097000E4ECF4E0E60FF11D659565956D936D91DE
:100980007D918D919D91099423C01AC012C016C00B
:1009900010C01EC009C014C013C006C019C009C0D1
:1009A0000DC007C00DC014C0625070408040904020
:1009B0000BC0615070408040904006C06E5F01C027
:1009C0006F5F7F4F8F4F9F4F9E938E937E936E935B
:1009D000089580912803909129030C94A704809195
:1009E0002A0390912B030C94A70480913703823043
:1009F00078F4F8948CE293E00E94A70460913303AA
:100A00007091340380913503909136037894089562
:100A1000F894F4CF089590E080E008950F931F9329
:100A2000CF93DF93EC01042F698711E01F838E8140
:100A3000880F9D819460892B288598E0299F9001DB
:100A40001124822B607F682BCE010E94AE021F8290
:100A50006E81660F888528E0829FC0011124682B73
:100A60008D81682B8985807F682BCE010E94AE0224
:100A7000011131C08FE890E00197F1F71F838D815C
:100A800084606E81660F682B888528E0829FC00194
:100A90001124682B898520E1829FC0011124682BD5
:100AA000CE010E94AE021F826E81660F888528E00B
:100AB000829FC0011124682B8D81682B898520E1DC
:100AC000829FC0011124682BCE01DF91CF911F912D
:100AD0000F910C94AE02DF91CF911F910F91089569
:100AE00010923D0310923E03811180E4682F6068EC
:100AF00040E088E393E00E940E058FE890E00197C4
:100B0000F1F70895E8E3F3E01582168240E061E032
:100B1000CF010E940E058BEF98E10197F1F7089540
:100B200021E0FC012583168240E00E940E058FE93A
:100B300090E00197F1F781E090E00895CF93DF9383
:100B4000C4E0D0E061E08AE00E94080161E08AE050
:100B50000E94DA0061E08BE00E94080160E08BE017
:100B60000E94DA0068EE73E080E090E00E945E018F
:100B700061E08AE00E94080160E08AE00E94DA00F9
:100B800061E08BE00E94080160E08BE00E94DA00E7
:100B900064EF71E080E090E00E945E01219791F6A1
:100BA000DF91CF910895CF92DF92EF92FF9228EEDE
:100BB00033E0829F6001839FD00C929FD00C112460
:100BC0000D2C000CEE08FF088091000161E08130DF
:100BD00011F588E00E94080161E088E00E94DA00D7
:100BE00061E089E00E94080160E089E00E94DA008B
:100BF000C701B6010E945E0161E088E00E94080121
:100C000060E088E00E94DA0010920001FF90EF900F
:100C1000DF90CF90089588E00E94080160E088E0AE
:100C20000E94DA0061E089E00E94080161E089E049
:100C30000E94DA00C701B6010E945E0161E089E00E
:100C40000E94080160E089E00E94DA0081E0809360
:100C50000001DCCFFC0101900020E9F73197AF01E2
:100C6000481B590BBC0188E393E00C9495018091DB
:100C700002019091030182309105F9F04CF4019743
:100C800079F081E090E09093030180930201089550
:100C900083309105F1F00497A1F783E090E0F3CF62
:100CA0000E9482058CE291E00E942A0681E00E9467
:100CB00070058DE391E00C942A060E9482058CE277
:100CC00091E00E942A0681E00E9470058EE491E086
:100CD000F2CF0E9482058CE291E00E942A0681E018
:100CE0000E9470058FE591E0E6CFFC018081918143
:100CF000009711F00C94070F08950F931F93CF9353
:100D0000DF93EC0188819981009759F02A813B811A
:100D10002617370730F081E0DF91CF911F910F91B7
:100D200008958B016F5F7F4F0E94900F009759F0DD
:100D3000998388831B830A832C813D81232B59F758
:100D4000FC011082E8CF80E0E7CFEF92FF920F9393
:100D50001F93CF93DF93EC01FB01E080F180E1145E
:100D6000F10411F10481158101151105A9F08C819F
:100D70009D81080F191FB801CE010E947D068823AE
:100D800099F0288139818C819D81B701820F931F51
:100D90000E9456101D830C83CE01DF91CF911F91CD
:100DA0000F91FF90EF90089588819981009711F03D
:100DB0000E94070F198218821D821C821B821A82D0
:100DC000EBCFEF92FF920F931F93CF93DF93EC0142
:100DD0007B018A01BA010E947D0628813981811137
:100DE00014C02115310519F0C9010E94070F19829D
:100DF00018821D821C821B821A82CE01DF91CF9144
:100E00001F910F91FF90EF9008951D830C83B70100
:100E1000C9010E945610F1CF85ED8093BC008091EE
:100E2000950290919602A0919702B0919802079630
:100E3000A11DB11D23E0B695A795979587952A9595
:100E4000D1F72091BC0024FD03C01092DE0208956A
:100E5000409195025091960260919702709198028C
:100E6000452B462B472B69F30097A105B10541F0AF
:100E70002AE22A95F1F700C00197A109B109E1CF53
:100E8000809194020C9407021F920F920FB60F925A
:100E900011242F933F938F939F93AF93BF93809190
:100EA000140390911503A0911603B091170330918C
:100EB000130323E0230F2D3758F50196A11DB11D13
:100EC000209313038093140390931503A0931603A8
:100ED000B09317038091180390911903A0911A03FE
:100EE000B0911B030196A11DB11D8093180390932F
:100EF0001903A0931A03B0931B03BF91AF919F9165
:100F00008F913F912F910F900FBE0F901F901895CA
:100F100026E8230F0296A11DB11DD2CF1F920F927A
:100F20000FB60F9211242F933F934F935F936F93BC
:100F30007F938F939F93AF93BF93EF93FF93E09132
:100F40000601F09107010995FF91EF91BF91AF91D3
:100F50009F918F917F916F915F914F913F912F91D1
:100F60000F900FBE0F901F9018951F920F920FB603
:100F70000F9211242F933F934F935F936F937F931F
:100F80008F939F93AF93BF93EF93FF93E0910401EF
:100F9000F09105010995FF91EF91BF91AF919F915C
:100FA0008F917F916F915F914F913F912F910F9012
:100FB0000FBE0F901F9018951F920F920FB60F92B1
:100FC00011242F933F934F935F936F937F938F934E
:100FD0009F93AF93BF93EF93FF93809107039091FB
:100FE0000803A0910903B0910A03892B8A2B8B2B4C
:100FF000D1F190910603E0910403F0910503808103
:10100000892780838091070390910803A0910903A9
:10101000B0910A03181619061A061B069CF4809153
:10102000070390910803A0910903B0910A03019767
:10103000A109B1098093070390930803A0930903C2
:10104000B0930A03FF91EF91BF91AF919F918F9160
:101050007F916F915F914F913F912F910F900FBEB4
:101060000F901F90189580910101E8E6F0E0E4915F
:101070009FEF90930101E13051F030F0E23069F0E0
:1010800060E00E94DA00DECF10926E00F9CF9091FE
:101090006F009D7F90936F00F3CF909170009D7FC4
:1010A0009093700091E09093B0009091B100987F80
:1010B00094609093B1001092B300E2CF1F920F9210
:1010C0000FB60F9211242F933F934F935F936F931B
:1010D0007F938F939F93AF93BF93EF93FF938091F1
:1010E000B900887F803609F44AC0F0F5883209F4E7
:1010F000A7C018F5803109F49BC0B8F4882309F41F
:10110000F9C0883009F494C0FF91EF91BF91AF917D
:101110009F918F917F916F915F914F913F912F910F
:101120000F900FBE0F901F901895883109F488C05A
:10113000803251F78093DD0214C0803409F49DC0E1
:1011400040F48033B9F38833F9F68093DD0285ECFF
:10115000B0C0803509F485C0883509F496C088345C
:1011600099F60E940C07D0CF883909F48CC038F565
:10117000883729F050F4883611F0803729F683E05B
:101180008093DE021092DC0257C0883809F47BC0DD
:10119000803919F0803809F0B7CF8091DC028032B5
:1011A00008F071C0E091DC0281E08E0F8093DC02D8
:1011B0008091BB00F0E0E454FD4F80833DC0803B54
:1011C00039F0E0F4803A09F479C0883A09F09CCF0C
:1011D00084E08093DE021092BB021092BA02E0918A
:1011E0000D03F0910E0309958091BA0281110FC091
:1011F00081E08093BA0210929A0209C0803C09F4FF
:10120000A6CF883C09F4A3CF883B09F07DCFE091BD
:10121000BB0281E08E0F8093BB02F0E0E656FD4FEB
:1012200080818093BB009091BB028091BA0229C05B
:10123000809103038093BB0085EC8093BC0064CF56
:101240009091020380910103981758F5E0910203F1
:1012500081E08E0F80930203F0E0EF51FD4F80811B
:10126000E9CFE091020381E08E0F80930203809129
:10127000BB00F0E0EF51FD4F80839091020380911D
:1012800001039817C8F285E8D8CFE091020381E006
:101290008E0F809302038091BB00F0E0EF51FD4F71
:1012A00080838091E00281115CCF81E08093DF0236
:1012B00084EA8093BC001092DE0226CF85EC8093F6
:1012C000BC001092DE028091DC02803230F4E091AA
:1012D000DC02F0E0E454FD4F10826091DC0270E02B
:1012E000E0910B03F0910C038CEB92E009951092C6
:1012F000DC020ACF1092DD0234CFCF93DF9310923D
:101300001F0310921E0388EE93E0A0E0B0E08093EC
:10131000200390932103A0932203B093230382E13F
:1013200091E090931D0380931C0310923B03109255
:101330003A0384E291E0909339038093380310924A
:101340003D0310923E0310923F031092400310920F
:101350004103109242031092430387E280933C03BF
:1013600062E083E00E94080162E084E00E940801DC
:10137000E2EBF0E0E491F0E0EE0FFF1FEB55FF4FE2
:10138000A591B491B0932D03A0932C03E4E9F0E070
:10139000449140933003E3EBF0E0E491F0E0EE0F92
:1013A000FF1FEB55FF4FC591D491D0932F03C093EE
:1013B0002E03E5E9F0E0E491E0933103109233036A
:1013C0001092340310923503109236032BE33FE161
:1013D000C9010197F1F79C91842F892391E009F4C9
:1013E00090E08881E82309F09260909332038CE2C8
:1013F00093E090932B0380932A038FEE94E09093D5
:1014000007018093060180916900837F8460809347
:101410006900E99A81E080933703DF91CF910895C5
:10142000CF93DF93CDB7DEB7A5970FB6F894DEBFA5
:101430000FBECDBF789484B5826084BD84B58160D1
:1014400084BD85B5826085BD85B5816085BD80918F
:101450006E00816080936E00109281008091810007
:1014600082608093810080918100816080938100FF
:10147000809180008160809380008091B1008460C1
:101480008093B1008091B00081608093B000809122
:101490007A00846080937A0080917A0082608093E1
:1014A0007A0080917A00816080937A0080917A003E
:1014B000806880937A001092C10061E088E00E9409
:1014C000080161E089E00E94080161E08AE00E9471
:1014D000080161E08BE00E94080161E085E00E9464
:1014E000080161E086E00E94080161E087E00E9457
:1014F000080162E082E00E94080181E991E0909396
:10150000050180930401809169008C7F8260809343
:101510006900E89A109212031092110310921003BE
:1015200010920F030E94E90182E991E090930E036B
:1015300080930D0383E991E090930C0380930B0358
:1015400060E088E393E00E94AE0262E370E080E036
:1015500090E00E945E0110923D0310923E0341E034
:1015600060E388E393E00E940E058BE991E4019724
:10157000F1F741E060E388E393E00E940E0583E524
:1015800092E00197F1F741E060E388E393E00E9485
:101590000E050FE810E0C8010197F1F741E060E2A5
:1015A00088E393E00E940E05C8010197F1F740E03F
:1015B00068E288E393E00E940E05C8010197F1F705
:1015C00010923D0310923E0360914203862F846087
:1015D000809342036C6040E088E393E00E940E0534
:1015E000C8010197F1F70E94820510923D03109205
:1015F0003E0360914303862F8260809343036660BD
:1016000040E088E393E00E940E05C8010197F1F7DE
:1016100081E08093400368E088E393E00E94AE029B
:101620008091020190910301092E000CAA0BBB0BC3
:10163000F8948093330390933403A0933503B093CD
:10164000360378940E9437068E010F5F1F4FECE03F
:101650008E2E912CA12CB12C74E2272E312C0E94BD
:10166000F5042091020130910301690142E0C40EAA
:10167000D11C0D2C000CEE08FF08C616D706E80694
:10168000F906E4F4C90101969093030180930201E5
:10169000F894092E000CAA0BBB0B80933303909394
:1016A0003403A0933503B093360378940E94370631
:1016B00064E670E080E090E00E945E010E94F50424
:1016C00020910201309103016901A2E0CA1AD108F8
:1016D0000D2C000CEE08FF086C157D058E059F058E
:1016E000E4F4C90101979093030180930201F894F7
:1016F000092E000CAA0BBB0B809333039093340389
:10170000A0933503B093360378940E94370664E6BD
:1017100070E080E090E00E945E010E94B600892B9C
:1017200021F580910201909103018130910559F1D9
:10173000029709F406C20E94370680910201909137
:101740000301092E000CAA0BBB0BF8948093330302
:1017500090933403A0933503B0933603789464E6F2
:1017600070E080E090E00E945E0164E670E080E05E
:1017700090E00E945E0180E090E0892B09F46FCF39
:101780000E94000069CF0E9482058AE691E00E94D3
:101790002A0664E670E080E090E00E945E010E940C
:1017A000F50424E030E040E050E00E94240E722E68
:1017B000B3E0B2170CF0A4C0F89480923303909277
:1017C0003403A0923503B0923603789463E0762E0A
:1017D00081E00E9470051C8A1B8A1E8A1D8A188E51
:1017E0001F8A44E050E06BE771E0CE0143960E940F
:1017F000E106E72C072C000CFF081A8E198E1C8EB0
:101800001B8E1E8E1D8E4AE0B801C7010E94A40DDA
:10181000F80101900020E9F73197AF01401B510B0F
:10182000B801CE0149960E94E10618A21F8E1AA2A5
:1018300019A21CA21BA24BE050E060E871E0CE01AF
:101840004F960E94E1061A8219821C821B821E8218
:101850001D826F8D78A16115710529F04BA15CA1E6
:10186000C8010E94E106BE01675E7F4FC8010E9469
:10187000A506BE016D5E7F4F0E94A506DC01149691
:101880004D915C9115976D917C9188E393E00E9456
:101890009501C8010E947506CE014F960E947506FB
:1018A000CE0149960E947506CE0143960E947506A8
:1018B00064E670E080E090E00E945E010E94B60065
:1018C000892B09F06CCFC701F7FE03C09195819574
:1018D00091090E9493030E94820580E00E94700596
:1018E000B1E07B1609F4A6C0B715FCF0772069F1CA
:1018F00084EC91E00E942A0695EAE92EF12C2CC096
:10190000EFEF2E170CF064CFF8948CEF9FEFAFEF52
:10191000BFEF8093330390933403A0933503B093C8
:101920003603789477247A9453CFE2E07E1609F454
:101930008AC0F3E07F12DCCF86EB91E00E942A069A
:101940002DE0E22E22E0F22E07C08CE891E00E940A
:101950002A0652EDE52EF12C81E00E94700582ED01
:1019600091E00E942A0664E670E080E090E00E9428
:101970005E0161E087E00E94DA0064EF71E080E0E0
:1019800090E00E945E0160E087E00E94DA0064EF70
:1019900071E080E090E00E945E010E94B600892B19
:1019A00041F70E94820583EE91E00E942A06C7015A
:1019B0000A97B1010E94100E6B017C016DA361E0DA
:1019C00087E00E94DA008AE090E00E94D3050E943E
:1019D0009E0588EE93E0E89E2001E99E500CF89E5B
:1019E000500C1124052C000C66087708F12CE12C12
:1019F0009DA1E91688F560E375E780E090E00E941C
:101A00005E0186E090E00E94D305C70102968C1526
:101A10009D0524F083E090E00E949303C301B2018E
:101A20000E945E0185E090E00E949303AFEFEA1A06
:101A3000FA0ADECF8AE991E00E942A0641E1E42E0B
:101A4000FF24F39489CF88EA91E00E942A0630E7C8
:101A5000E32EFF24F39480CF60E087E00E94DA0059
:101A60000E94820582EF91E00E942A0681E00E9496
:101A7000700588E092E00E942A0681E090E00E94D2
:101A8000930364E670E080E090E00E945E010E94B3
:101A9000B600892B91F788E192E00E942A0661E066
:101AA00087E00E94DA000E949E0580ECF82E8FE00D
:101AB00090E00E94D30568E97AE380E090E00E941C
:101AC0005E01FA94F110F3CF86E090E00E94930358
:101AD00060E087E00E94DA000E94820580E00E94B8
:101AE000700583E292E00E942A0681E00E94700560
:101AF00086E392E00E942A0681E090E00E94930330
:101B000064E670E080E090E00E945E010E94B60012
:101B1000892B91F78091020190910301092E000C0D
:101B2000AA0BBB0BF8948093330390933403A093D8
:101B30003503B0933603789481E090E00E949303DC
:101B4000FACD82E090E0FACFBB274A3031F49923F6
:101B500022F4BDE2909581959F4F0C94B00DBB2768
:101B6000FB015527AA27880F991FAA1FA41710F059
:101B7000A41B83955051B9F7A05DAA3308F0A95D65
:101B8000A193009779F7B111B1931192CB010C9405
:101B9000C90DDC01FC01672F71917723E1F73297C2
:101BA00004C07C916D9370836291AE17BF07C8F338
:101BB00008952F923F924F925F926F927F928F92F1
:101BC0009F92AF92BF92CF92DF92EF92FF920F93CC
:101BD0001F93CF93DF93CDB7DEB7CA1BDB0B0FB6D6
:101BE000F894DEBF0FBECDBF09942A883988488893
:101BF0005F846E847D848C849B84AA84B984C88429
:101C0000DF80EE80FD800C811B81AA81B981CE0F1F
:101C1000D11D0FB6F894DEBF0FBECDBFED01089504
:101C2000AA1BBB1B51E107C0AA1FBB1FA617B70702
:101C300010F0A61BB70B881F991F5A95A9F780951E
:101C40009095BC01CD010895052E97FB1EF40094DC
:101C50000E943B0E57FD07D00E94430E07FC03D0A5
:101C60004EF40C943B0E50954095309521953F4F86
:101C70004F4F5F4F089590958095709561957F4F78
:101C80008F4F9F4F0895A1E21A2EAA1BBB1BFD0187
:101C90000DC0AA1FBB1FEE1FFF1FA217B307E4074B
:101CA000F50720F0A21BB30BE40BF50B661F771FA3
:101CB000881F991F1A9469F7609570958095909583
:101CC0009B01AC01BD01CF010895EE0FFF1F0590F0
:101CD000F491E02D09940F931F93CF93DF938230FB
:101CE000910510F482E090E0E0914603F091470303
:101CF00030E020E0B0E0A0E0309799F42115310504
:101D000009F44AC0281B390B24303105D8F58A81E3
:101D10009B816115710589F1FB0193838283FE012B
:101D200011C0408151810281138148175907E0F0A9
:101D30004817590799F4109761F012960C9312976F
:101D400013961C933296CF01DF91CF911F910F9183
:101D500008950093460310934703F4CF21153105EE
:101D600051F04217530738F0A901DB019A01BD0178
:101D7000DF01F801C1CFEF01F9CF909347038093C2
:101D80004603CDCFFE01E20FF31F819391932250C2
:101D9000310939832883D7CF2091440330914503FB
:101DA000232B41F420910A0130910B01309345031C
:101DB0002093440320910801309109012115310538
:101DC00041F42DB73EB740910C0150910D01241BF9
:101DD000350BE0914403F0914503E217F307A0F4BB
:101DE0002E1B3F0B2817390778F0AC014E5F5F4F71
:101DF0002417350748F04E0F5F1F5093450340935B
:101E00004403819391939FCFF0E0E0E09CCFCF9388
:101E1000DF930097E9F0FC01329713821282A091C0
:101E20004603B0914703ED0130E020E01097A1F4A4
:101E300020813181820F931F20914403309145030B
:101E40002817390709F061C0F0934503E093440374
:101E5000DF91CF910895EA01CE17DF07E8F54A81B7
:101E60005B819E0141155105B1F7E901FB83EA83CE
:101E700049915991C40FD51FEC17FD0761F480817A
:101E800091810296840F951FE9019983888382814D
:101E900093819B838A83F0E0E0E012968D919C9180
:101EA00013970097B9F52D913C911197CD010296AA
:101EB000820F931F2091440330914503281739075F
:101EC00039F6309751F51092470310924603B093BC
:101ED0004503A0934403BCCFD383C2834081518187
:101EE000840F951FC817D90761F44E5F5F4F888133
:101EF0009981480F591F518340838A819B81938325
:101F000082832115310509F0B0CFF0934703E093A8
:101F100046039ECFFD01DC01C0CF13821282D7CFD2
:101F2000B0E0A0E0E6E9FFE00C94DB0D8C01009747
:101F300051F4CB010E946B0E8C01C801CDB7DEB706
:101F4000E0E10C94F70DFC01E60FF71F9C01225015
:101F50003109E217F30708F49DC0D901CD91DC9156
:101F60001197C617D70798F0C530D10530F3CE01C9
:101F700004978617970708F3C61BD70B2297C193C0
:101F8000D1936D937C93CF010E94070FD6CF5B0155
:101F9000AC1ABD0A4C018C0E9D1EA0914603B09157
:101FA0004703512C412CF12CE12C109731F58091F5
:101FB0004403909145038815990509F05CC04616C5
:101FC000570608F058C080910801909109010097C8
:101FD00041F48DB79EB740910C0150910D01841BC7
:101FE000950BE817F90708F055C0F0934503E09307
:101FF0004403F90171836083A0CF8D919C91119767
:1020000012966C90129713967C901397A815B905A9
:1020100059F56C0142E0C40ED11CCA14DB0420F156
:10202000AC014A195B09DA011296159780F06282B9
:10203000738251834083D9016D937C93E114F10441
:1020400071F0D7011396FC93EE93129776CF2296F8
:102050008C0F9D1FF90191838083F301EFCFF093E3
:102060004703E093460369CF4816590608F42C014C
:102070007D01D3019ACFCB010E946B0E7C010097AA
:1020800049F0AE01B8010E944D10C8010E94070F2F
:10209000870153CF10E000E050CFFB01DC0102C00C
:1020A00001900D9241505040D8F70895FB01DC019A
:1020B00001900D920020E1F70895F894FFCF01FF01
:1020C000010094019401000048038000000000001A
:1020D0007F0252020B0528024B023802290200003F
:1020E0000000900595010B050A05202046696C6DDE
:1020F0002044657620426F742020003E432D343109
:1021000020202020204226572020200020432D344C
:1021100031202020203E422657202020003E4375BB
:1021200073746F6D20202000432D34312044657678
:10213000656C6F706D656E740020737470005075FF
:1021400073682F50756C6C3F2000432D34312C2068
:102150002B30205075736800432D34312C202B31E7
:10216000205075736800432D34312C202B322050C1
:1021700075736800432D34312C202B332050757338
:102180006800432D34312C202D312050756C6C00AB
:10219000486C642062746E20746F20737461727472
:1021A00000446576656C6F70696E67202E2E2E0078
:1021B000446576656C6F706D656E742046696E69F6
:1021C000736865642E00486C642062746E20746FBE
:1021D000206669782E00466978696E67202E2E2E5B
:1021E0000050726F636573732046696E697368652A
:1021F000642E2000486C642062746E20746F20632B
:062200006E66726D000025
:107E0000112484B714BE81FFF0D085E080938100F7
:107E100082E08093C00088E18093C10086E0809377
:107E2000C20080E18093C4008EE0C9D0259A86E02C
:107E300020E33CEF91E0309385002093840096BBD3
:107E4000B09BFECF1D9AA8958150A9F7CC24DD24C4
:107E500088248394B5E0AB2EA1E19A2EF3E0BF2EE7
:107E6000A2D0813461F49FD0082FAFD0023811F036
:107E7000013811F484E001C083E08DD089C08234E0
:107E800011F484E103C0853419F485E0A6D080C0E4
:107E9000853579F488D0E82EFF2485D0082F10E0AE
:107EA000102F00270E291F29000F111F8ED06801E7
:107EB0006FC0863521F484E090D080E0DECF843638
:107EC00009F040C070D06FD0082F6DD080E0C81688
:107ED00080E7D80618F4F601B7BEE895C0E0D1E017
:107EE00062D089930C17E1F7F0E0CF16F0E7DF06D8
:107EF00018F0F601B7BEE89568D007B600FCFDCFD4
:107F0000A601A0E0B1E02C9130E011968C91119780
:107F100090E0982F8827822B932B1296FA010C0160
:107F200087BEE89511244E5F5F4FF1E0A038BF0790
:107F300051F7F601A7BEE89507B600FCFDCF97BE46
:107F4000E89526C08437B1F42ED02DD0F82E2BD052
:107F50003CD0F601EF2C8F010F5F1F4F84911BD097
:107F6000EA94F801C1F70894C11CD11CFA94CF0C13
:107F7000D11C0EC0853739F428D08EE10CD085E9AC
:107F80000AD08FE07ACF813511F488E018D01DD067
:107F900080E101D065CF982F8091C00085FFFCCF94
:107FA0009093C60008958091C00087FFFCCF809118
:107FB000C00084FD01C0A8958091C6000895E0E648
:107FC000F0E098E1908380830895EDDF803219F02E
:107FD00088E0F5DFFFCF84E1DECF1F93182FE3DFCA
:107FE0001150E9F7F2DF1F91089580E0E8DFEE27F6
:047FF000FF270994CA
:027FFE00040479
:00000001FF
