:100000000C9493000C942B0A0C94040A0C94BB00DF
:100010000C94BB000C94BB000C94BB000C94520AD3
:100020000C94BB000C94BB000C94BB000C94BB0064
:100030000C94BB000C94BB000C94BB000C94BB0054
:100040000C94BA090C94BB000C94FA0A0C94D40AD0
:100050000C94BB000C94BB000C94BB000C94BB0034
:100060000C942C0B0C94BB002C20002020006D6500
:100070006E753A00202020202020437573746F6D28
:100080002020202000202020202020204226572031
:1000900020202020200020202020202020452D3638
:1000A0002020202020200020202020202020432D40
:1000B0003431202020202000202020202020436FC9
:1000C0006C6F7220202020200000000000240027F8
:1000D000002A0000000008000201000003040700DD
:1000E0000000000000000000000000250028002B98
:1000F00000020102040810204080010204081020C0
:10010000010204081020000000002300260029003E
:1001100004040404040404040202020202020303AD
:10012000030303034B0C11241FBECFEFD8E0DEBF47
:10013000CDBF23E0A8E2B2E001C01D92AE3EB207FF
:10014000E1F712E0A0E0B1E0E0E1F9E202C00590E1
:100150000D92A832B107D9F710E0C3E9D0E004C08E
:100160002197FE010E948E12C239D107C9F70E9461
:10017000510D0C9486140C9400002091E6033091EC
:10018000E70325303105E4F495E0929FF001939F59
:10019000F00D1124E553FC4F718360835383428338
:1001A00084832F5F3F4F3093E7032093E6038091D2
:1001B000E8039091E90301969093E9038093E803A3
:1001C0000895FC01538D448D252F30E0842F90E05D
:1001D000821B930B541710F0CF9608950197089542
:1001E000FC01918D828D981761F0A28DAE0FBF2F0B
:1001F000B11D5D968C91928D9F5F9F73928F90E061
:1002000008958FEF9FEF0895FC01918D828D9817CF
:1002100031F0828DE80FF11D858D90E008958FEF0C
:100220009FEF0895FC01918D228D892F90E0805CD5
:100230009F4F821B91098F7399270895FC01A48D0C
:10024000A80FB92FB11DA35ABF4F2C91848D90E0F8
:1002500001968F739927848FA689B7892C93A089DB
:10026000B1898C91837080648C93938D848D981365
:1002700006C00288F389E02D80818F7D80830895F8
:10028000EF92FF920F931F93CF93DF93EC0181E0E6
:10029000888F9B8D8C8D98131AC0E889F98980818D
:1002A00085FF15C09FB7F894EE89FF896083E889C0
:1002B000F98980818370806480839FBF81E090E0B2
:1002C000DF91CF911F910F91FF90EF900895F62E3F
:1002D0000B8D10E00F5F1F4F0F731127E02E8C8DD9
:1002E0008E110CC00FB607FCFACFE889F98980811E
:1002F00085FFF5CFCE010E941E01F1CFEB8DEC0FF3
:10030000FD2FF11DE35AFF4FF0829FB7F8940B8F3A
:10031000EA89FB8980818062CFCF0F931F93CF93AF
:10032000DF938C01D0E0C0E0F801EC0FFD1F649179
:10033000662341F084E093E00E944001892B11F094
:100340002196F2CFCE01DF91CF911F910F910895A9
:10035000CF93DF93EC01888D8823B9F0AA89BB89FC
:10036000E889F9898C9185FD03C0808186FD0DC0E7
:100370000FB607FCF7CF8C9185FFF2CF808185FF08
:10038000EDCFCE010E941E01E9CFDF91CF910895FC
:1003900084E093E00E94120121E0892B09F420E01F
:1003A000822F089580E090E0892B29F00E94C801F7
:1003B00081110C9400000895833081F028F481307D
:1003C00099F08230A9F008958730A9F08830C9F0FB
:1003D0008430B1F4809180008F7D03C080918000D3
:1003E0008F7780938000089584B58F7784BD0895BA
:1003F00084B58F7DFBCF8091B0008F778093B00064
:1004000008958091B0008F7DF9CF1F93CF93DF9334
:10041000282F30E0F901ED52FF4F8491F901EE50A1
:10042000FF4FD491F901E05FFE4FC491CC23A9F0B6
:10043000162F81110E94DC01EC2FF0E0EE0FFF1F60
:10044000E951FF4FA591B4918FB7F894EC91111138
:1004500008C0D095DE23DC938FBFDF91CF911F9131
:100460000895DE2BF8CFCF93DF9390E0FC01EE50A0
:10047000FF4F2491805F9E4FFC0184918823C9F037
:1004800090E0880F991FFC01E753FF4FA591B491AD
:10049000FC01E951FF4FC591D49161110DC09FB787
:1004A000F8948C91209582238C938881282328832B
:1004B0009FBFDF91CF910895623051F49FB7F894B8
:1004C0003C91822F809583238C93E8812E2BEFCF54
:1004D0008FB7F894EC912E2B2C938FBFEACFCF934C
:1004E00080910101853021F08F3F61F1CF91089516
:1004F000E1EFF0E0C491C7FDF9CF61E085E00E9433
:100500003302CC2309F48CC0C23009F0A1C0809121
:10051000B100887F82608093B10089EF8093B3003F
:1005200088EE93E0A0E0B0E08093F8029093F902A7
:10053000A093FA02B093FB028091700082608093D6
:100540007000D4CF85E080930101E1EFF0E0C49129
:10055000CF3F61F2C13021F150F0C23009F43EC00A
:10056000C7FDC4CF61E085E00E943302CDCF14BC4B
:1005700015BC84B5826084BD85B5816085BDE5E12B
:10058000F1E0E491F0E0EE0FFF1FE951FF4F85919C
:100590009491E7EFF0E0E491E093F702C0E0ADCF93
:1005A0001092800010928100809181008860809379
:1005B000810080918100816080938100E5E1F1E01C
:1005C000E491F0E0EE0FFF1FE951FF4F8591949108
:1005D000E7EFF0E0E491E093F6028FCF1092B000E5
:1005E0001092B1008091B00082608093B000809141
:1005F000B10081608093B100E5E1F1E0E491F0E0C9
:10060000EE0FFF1FE951FF4F859194919093F502F2
:100610008093F402E7EFF0E0E491E093F3026DCF12
:1006200085B5887F826085BD89EF87BD88EE93E0C0
:10063000A0E0B0E08093000390930103A093020335
:10064000B093030380916E00826080936E004ECF62
:10065000C130F1F480918100887F816080938100B6
:100660008FEC97E0909389008093880088EE93E068
:10067000A0E0B0E08093FC029093FD02A093FE0204
:10068000B093FF0280916F00826080936F002ECF45
:10069000C23021F0C1112ACF8FECC7CF8FEC3ECFF3
:1006A0003FB7F8948091EF029091F002A091F1028F
:1006B000B091F20226B5A89B05C02F3F19F0019614
:1006C000A11DB11D3FBFBA2FA92F982F8827BC01AC
:1006D000CD01620F711D811D911D42E0660F771FD4
:1006E000881F991F4A95D1F708958F929F92AF92D4
:1006F000BF92CF92DF92EF92FF926B017C010E943A
:1007000050034B015C01C114D104E104F104B9F0C0
:100710000E945003681979098A099B09683E734051
:100720008105910580F321E0C21AD108E108F108A2
:1007300088EE880E83E0981EA11CB11CE4CFFF90C8
:10074000EF90DF90CF90BF90AF909F908F900895E3
:10075000089508950895AF92BF92CF92DF92EF92DD
:10076000FF920F931F93CF93DF936C017B018B015B
:10077000040F151FEB015E01AE18BF08C017D107AB
:1007800059F06991D601ED91FC910190F081E02D35
:10079000C6010995892B79F7C501DF91CF911F918A
:1007A0000F91FF90EF90DF90CF90BF90AF900895A2
:1007B00020919802260F3327331F21323105ECF4A4
:1007C0002091BC02FC0190E080E0243069F082E0DE
:1007D0000895A09198022191AC0148585D4FA40F53
:1007E000B52FB11D2C930196861798F3809198022E
:1007F000680F6093980280E0089581E00895109258
:10080000BC0281E08093BE021092BD0261E082E1F1
:100810000E94050261E083E10E940502E9EBF0E03D
:1008200080818E7F808380818D7F808388E4809328
:10083000B80085E48093BC000895CF93DF9391E0E6
:10084000909377028823B9F0C091B800D091BA0094
:100850008091BC008A7B8093BC0060E082E10E94B2
:10086000050260E083E10E9405020E94FF03D0932D
:10087000BA00C093B800DF91CF9108950895E09138
:10088000E9028091E802E81730F4F0E0EE5AFD4FFB
:10089000808190E008958FEF9FEF08959091E90295
:1008A0008091E8022FEF3FEF981748F4E92FF0E02E
:1008B000EE5AFD4F208130E09F5F9093E902C9011D
:1008C00008958091E8029091E902891B990B08959F
:1008D000CF92DF92EF92FF920F931F93CF93DF930C
:1008E0007C01CB018A0120915102222389F0EB0186
:1008F0006B01C40ED51ECC15DD0569F06991D701D9
:10090000ED91FC910190F081E02DC7010995F3CFA5
:10091000642F0E94D803C801DF91CF911F910F91DE
:10092000FF90EF90DF90CF900895CF93DF931F92C9
:10093000CDB7DEB76983209151022223F9F02091CF
:10094000E602203258F021E030E0FC0133832283BC
:1009500090E080E00F90DF91CF9108958091E702C1
:10096000E82FF0E0EF5CFD4F998190838F5F8093DB
:10097000E7028093E60281E090E0ECCF61E0CE01F7
:1009800001960E94D803F7CFCF92DF92EF92FF92A9
:100990000F931F93CF93DF93FC01C48181E0809379
:1009A0005102C09330021092E7021092E60281EAEF
:1009B00093E00E949504D091E602D13208F092C0F3
:1009C0000E9450036B017C018091BC02811165C0C3
:1009D00082E08093BC0281E08093BE028FEF80931F
:1009E000BB021092E002D093DF02E1E3F2E0AFEB52
:1009F000B2E080E0D81385C01092E1028091E1025C
:100A0000CC0FC82BC093E1028091BD02813009F068
:100A10007CC01092BD020E9450036B017C0180914A
:100A2000E1028093BB008091730290917402A091C7
:100A30007502B0917602892B8A2B8B2B99F00E943C
:100A4000500300917302109174022091750230914D
:100A500076026C197D098E099F090617170728076A
:100A60003907E0F18091BC0083FDD9CF85EC8093FC
:100A7000BC000E9450036B017C018091BC0282305B
:100A800009F445C08091BB028F3F61F18091BB02A8
:100A9000803241F18091BB0225C080917302909118
:100AA0007402A0917502B0917602892B8A2B8B2B50
:100AB00009F48ACF0E9450030091730210917402CE
:100AC00020917502309176026C197D098E099F097B
:100AD000061717072807390708F076CF80917202AA
:100AE0000E941D041092E7021092E6021092510239
:100AF000DF91CF911F910F91FF90EF90DF90CF90FA
:100B0000089591919D938F5F75CF85EEB0CF8091C1
:100B1000730290917402A0917502B0917602892BB4
:100B20008A2B8B2B09F4A9CF0E94500300917302EA
:100B30001091740220917502309176026C197D0932
:100B40008E099F09061717072807390708F095CF60
:100B5000C5CFDC01ED91FD918081ED91FD919081FA
:100B6000ED91FD916C9163708E2309F064609F2379
:100B700009F06860E6ECF5E0E60FF11D6595659516
:100B80006D936D917D918D919D91099423C01AC0B3
:100B900012C016C010C01EC009C014C013C006C0C9
:100BA00019C009C00DC007C00DC014C0625070400C
:100BB000804090400BC0615070408040904006C023
:100BC0006E5F01C06F5F7F4F8F4F9F4F9E938E93DD
:100BD0007E936E9308958091AD039091AE030C9433
:100BE000A9058091AF039091B0030C94A905809161
:100BF000BC03823078F4F89481EB93E00E94A9055D
:100C00006091B8037091B9038091BA039091BB03CE
:100C100078940895F894F4CFCF92DF92EF92FF92F8
:100C20000F931F93CF93DF93C0902E02D0902F028B
:100C30000D2C000CEE08FF080E94F705C1E0D0E083
:100C40006C157D058E059F055CF00E94F705D0E0D0
:100C5000C0E0C616D706E806F90614F4C2E0D0E0F4
:100C6000E7EDF0E08491E6EFF0E00491E4E1F1E0FB
:100C70001491112311F181110E94DC01E12FF0E0A8
:100C8000EE0FFF1FEA5FFE4FA591B491EC918091AA
:100C90002D020E2391F0811157C00E94F705709329
:100CA0002F0260932E02CE01DF91CF911F910F9101
:100CB000FF90EF90DF90CF90089580912D028111E9
:100CC00016C081E080932D022FB7F8948091EB023B
:100CD0009091EC02A091ED02B091EE022FBF8093B3
:100CE000290290932A02A0932B02B0932C022FB7D3
:100CF000F8948091EB029091EC02A091ED02B091FA
:100D0000EE022FBF4091290250912A0260912B02DE
:100D100070912C02841B950BA60BB70B853F91405D
:100D2000A105B10508F4B9CF809128028111B5CF92
:100D300081E0809328026AEF70E080E090E00E94FA
:100D40007503C4E0D0E0A9CF80912802882329F060
:100D50001092280210922D02A0CF64E670E080E08D
:100D600090E00E947503C3E0D0E0F4CF089590E0D6
:100D700080E008950F931F93CF93DF93EC01042F2E
:100D80006B8711E019878885880F9F819460892B74
:100D90002A8598E0299F90011124822B607F682B7F
:100DA000CE010E94C40419866885660F8A8528E0F2
:100DB000829FC0011124682B8F81682B8B85807FD7
:100DC000682BCE010E94C404011131C08FE890E06D
:100DD0000197F1F719878F8184606885660F682B0A
:100DE0008A8528E0829FC0011124682B8B8520E131
:100DF000829FC0011124682BCE010E94C404198671
:100E00006885660F8A8528E0829FC0011124682BBF
:100E10008F81682B8B8520E1829FC0011124682B74
:100E2000CE01DF91CF911F910F910C94C404DF91FB
:100E3000CF911F910F9108951092C4031092C50392
:100E40009091C203891708F4982F8091C3038617E5
:100E500008F460E0E62FF0E0E45DFE4F6081690F8A
:100E6000606840E08DEB93E00E94BA068FE890E066
:100E70000197F1F70895EDEBF3E01782108640E05B
:100E800061E0CF010E94BA068BEF98E10197F1F77C
:100E9000089521E0FC012783108640E00E94BA06F5
:100EA0008FE990E00197F1F781E090E008950F93CA
:100EB0001F93CF93DF938B011092C4031092C5034D
:100EC00098E0899FB0011124606440E08DEB93E0CD
:100ED0000E94BA068FE890E00197F1F7E801085FF9
:100EE0001F4F69918DEB93E00E944907C017D1070E
:100EF000C1F760E080E0DF91CF911F910F910C94DA
:100F00001C07CF93DF93C4E0D0E061E08AE00E9449
:100F1000330261E08AE00E94050261E08BE00E94FA
:100F2000330260E08BE00E94050268EE73E080E02F
:100F300090E00E94750361E08AE00E94330260E065
:100F40008AE00E94050261E08BE00E94330260E0CB
:100F50008BE00E94050264EF71E080E090E00E9467
:100F60007503219791F6DF91CF910895CF92DF928B
:100F7000EF92FF9228EE33E0829F6001839FD00CB6
:100F8000929FD00C11240D2C000CEE08FF088091CC
:100F9000000161E0813049F588E00E94330261E0A0
:100FA00088E00E94050261E089E00E94330260E06F
:100FB00089E00E940502C701B6010E9475031092E4
:100FC000000161E088E00E94330260E088E00E9456
:100FD000050261E089E00E94330260E089E0FF9051
:100FE000EF90DF90CF900C94050288E00E943302CE
:100FF00060E088E00E94050261E089E00E9433021F
:1010000061E089E00E940502C701B6010E947503F4
:1010100081E080930001D5CFFC0180819181009710
:1010200011F00C9430130895FB0101900020E9F7B2
:101030003197AF01461B570BDC01ED91FC9102800B
:10104000F381E02D0994BC018DEB93E00C9414081E
:101050000F931F93CF93DF93EC01888199810097C1
:1010600059F02A813B812617370730F081E0DF9164
:10107000CF911F910F9108958B016F5F7F4F0E9459
:10108000B913009759F0998388831B830A832C81B5
:101090003D81232B59F7FC011082E8CF80E0E7CF98
:1010A000EF92FF920F931F93CF93DF93EC01FB011D
:1010B000E080F180E114F10411F104811581011542
:1010C0001105A9F08C819D81080F191FB801CE016F
:1010D0000E942808882399F0288139818C819D817C
:1010E000B701820F931F0E947F141D830C83CE01D2
:1010F000DF91CF911F910F91FF90EF90089588811C
:101100009981009711F00E943013198218821D8274
:101110001C821B821A82EBCFEF92FF920F931F93D8
:10112000CF93DF93EC017B018A01BA010E9428086A
:1011300028813981811114C02115310519F0C901A7
:101140000E943013198218821D821C821B821A820F
:10115000CE01DF91CF911F910F91FF90EF900895F5
:101160001D830C83B701C9010E947F14F1CFFC01DC
:10117000118210821382128215821482FB01019067
:101180000020E9F73197AF01461B570B0C948C08F0
:1011900085ED8093BC008091730290917402A091C0
:1011A0007502B09176020796A11DB11D23E0B69598
:1011B000A795979587952A95D1F72091BC0024FD96
:1011C00003C01092BC0208954091730250917402C2
:1011D0006091750270917602452B462B472B69F37F
:1011E0000097A105B10541F02AE22A95F1F700C068
:1011F0000197A109B109E1CF809172020C941D04FD
:101200008F929F92AF92BF92CF92DF92EF92FF9216
:101210000F931F93CF93DF9300D0CDB7DEB7009726
:1012200079F18B017C010E94E3114C01D12CC12C7E
:10123000C814D9042CF5F701EC0DFD1DE491E983E8
:101240001A82F801A480B580FFEFAF1ABF0AB5017A
:10125000C8010E942808882379F0F8012081318193
:1012600084819581BE016F5F7F4F820F931F0E9423
:101270007F14F801B582A482FFEFCF1ADF0AD8CF1E
:101280000F900F90DF91CF911F910F91FF90EF90F2
:10129000DF90CF90BF90AF909F908F9008950F9365
:1012A0001F93CF93DF9300D000D000D0CDB7DEB72F
:1012B0008C0162E671E0CE0101960E94B708BE0182
:1012C0006F5F7F4FC8010E9400090E943B0760E0EA
:1012D00080E00E941C074D815E8169817A818DEBDF
:1012E00093E00E94AB036CE171E081E00E9457073C
:1012F00061E086E00E941C0761E08DEB93E00E94B4
:10130000490764E271E082E00E94570761E088E0EB
:101310000E941C0762E08DEB93E00E94490764E1A4
:1013200071E083E00E94570761E08AE00E941C0799
:1013300063E08DEB93E00E9449076CE071E084E08C
:101340000E94570761E08EE00E941C0764E08DEB6D
:1013500093E00E944907CE0101960E940C08269650
:101360000FB6F894DEBF0FBECDBFDF91CF911F91B6
:101370000F9108951F920F920FB60F9211242F9381
:101380003F938F939F93AF93BF938091EB02909184
:10139000EC02A091ED02B091EE023091EA0223E05E
:1013A000230F2D3758F50196A11DB11D2093EA0298
:1013B0008093EB029093EC02A093ED02B093EE02C7
:1013C0008091EF029091F002A091F102B091F202AF
:1013D0000196A11DB11D8093EF029093F002A0939E
:1013E000F102B093F202BF91AF919F918F913F9123
:1013F0002F910F900FBE0F901F90189526E8230F86
:101400000296A11DB11DD2CF1F920F920FB60F925F
:1014100011242F933F934F935F936F937F938F93F9
:101420009F93AF93BF93EF93FF93E0910401F091EB
:1014300005010995FF91EF91BF91AF919F918F9118
:101440007F916F915F914F913F912F910F900FBEC0
:101450000F901F9018951F920F920FB60F921124A4
:101460002F933F934F935F936F937F938F939F93AC
:10147000AF93BF93EF93FF93E0910201F0910301CB
:101480000995FF91EF91BF91AF919F918F917F91BE
:101490006F915F914F913F912F910F900FBE0F90E1
:1014A0001F9018951F920F920FB60F9211242F9331
:1014B0003F934F935F936F937F938F939F93AF93DC
:1014C000BF93EF93FF938091F8029091F902A0915E
:1014D000FA02B091FB02892B8A2B8B2BD1F19091D0
:1014E000F302E091F402F091F50280818927808374
:1014F0008091F8029091F902A091FA02B091FB025A
:10150000181619061A061B069CF48091F802909191
:10151000F902A091FA02B091FB020197A109B10969
:101520008093F8029093F902A093FA02B093FB0221
:10153000FF91EF91BF91AF919F918F917F916F91AB
:101540005F914F913F912F910F900FBE0F901F9081
:10155000189580910101E1EFF0E0E4919FEF909305
:101560000101E13051F030F0E23069F060E00E94BA
:101570000502DECF10926E00F9CF90916F009D7F33
:1015800090936F00F3CF909170009D7F90937000C7
:1015900091E09093B0009091B100987F9460909307
:1015A000B1001092B300E2CF1F920F920FB60F92CC
:1015B00011242F933F934F935F936F937F938F9358
:1015C0009F93AF93BF93EF93FF9384E093E00E94C8
:1015D0001E01FF91EF91BF91AF919F918F917F91EC
:1015E0006F915F914F913F912F910F900FBE0F9090
:1015F0001F9018951F920F920FB60F9211242F93E0
:101600008F939F93EF93FF93E0911403F091150351
:101610008081E0911A03F0911B0382FD1BC0908131
:1016200080911D038F5F8F7320911E03821741F0FD
:10163000E0911D03F0E0EC5FFC4F958F80931D035C
:10164000FF91EF919F918F912F910F900FBE0F906F
:101650001F9018958081F4CF1F920F920FB60F92B2
:1016600011242F933F934F935F936F937F938F93A7
:101670009F93AF93BF93EF93FF938091B900887FBF
:10168000803609F44AC0F0F5883209F4A7C018F58D
:10169000803109F49BC0B8F4882309F4F9C088307C
:1016A00009F494C0FF91EF91BF91AF919F918F91F9
:1016B0007F916F915F914F913F912F910F900FBE4E
:1016C0000F901F901895883109F488C0803251F727
:1016D0008093BB0214C0803409F49DC040F4803371
:1016E000B9F38833F9F68093BB0285ECB0C080353E
:1016F00009F485C0883509F496C0883499F60E94AB
:10170000C808D0CF883909F48CC038F5883729F05B
:1017100050F4883611F0803729F683E08093BC02BC
:101720001092BA0257C0883809F47BC0803919F08A
:10173000803809F0B7CF8091BA02803208F071C0CA
:10174000E091BA0281E08E0F8093BA028091BB00D3
:10175000F0E0E656FD4F80833DC0803B39F0E0F479
:10176000803A09F479C0883A09F09CCF84E08093EC
:10177000BC021092990210929802E091E402F0915A
:10178000E50209958091980281110FC081E0809354
:1017900098021092780209C0803C09F4A6CF883CD8
:1017A00009F4A3CF883B09F07DCFE091990281E055
:1017B0008E0F80939902F0E0E858FD4F808180936E
:1017C000BB00909199028091980229C08091E1021A
:1017D0008093BB0085EC8093BC0064CF9091E002C5
:1017E0008091DF02981758F5E091E00281E08E0FBA
:1017F0008093E002F0E0E154FD4F8081E9CFE09179
:10180000E00281E08E0F8093E0028091BB00F0E067
:10181000E154FD4F80839091E0028091DF029817A0
:10182000C8F285E8D8CFE091E00281E08E0F809386
:10183000E0028091BB00F0E0E154FD4F8083809195
:10184000BE0281115CCF81E08093BD0284EA809367
:10185000BC001092BC0226CF85EC8093BC00109295
:10186000BC028091BA02803230F4E091BA02F0E01A
:10187000E656FD4F10826091BA0270E0E091E202FC
:10188000F091E3028AE992E009951092BA020ACF38
:101890001092BB0234CFCF93DF93109207031092C4
:1018A000060388EE93E0A0E0B0E0809308039093F5
:1018B0000903A0930A03B0930B0324E331E03093B0
:1018C00005032093040325EC30E0309311032093AB
:1018D000100324EC30E0309313032093120320EC28
:1018E00030E0309315032093140321EC30E0309363
:1018F00017032093160322EC30E030931903209352
:10190000180326EC30E030931B0320931A03109247
:101910001D0310921E0310921F03109220031092B9
:10192000A4031092A3038093A5039093A603A0930E
:10193000A703B093A80386E491E09093A203809359
:10194000A103EBECF3E084EE93E022E631E0318397
:10195000208313821282148235968E179F07B9F75F
:101960001092E7031092E6031092E5031092E4034D
:101970001092E9031092E8031092C0031092BF0383
:1019800088E591E09093BE038093BD0387E2809346
:10199000C1038FE08093C20381E08093C303109260
:1019A000C4031092C5031092C6031092C70310928D
:1019B000C8031092C9031092CA0362E083E00E9438
:1019C000330262E082E00E943302E3E1F1E0E4915D
:1019D000F0E0EE0FFF1FEA5FFE4FA591B491B093C8
:1019E000B203A093B103E5EFF0E044914093B50357
:1019F000E2E1F1E0E491F0E0EE0FFF1FEA5FFE4F5D
:101A0000C591D491D093B403C093B303E4EFF0E055
:101A1000E491E093B6031092B8031092B9031092C8
:101A2000BA031092BB032BE33FE1C9010197F1F721
:101A30009C91842F892391E009F490E08881E82328
:101A400009F0926021EB33E09093B7033093B00339
:101A50002093AF0381EF95E09093050180930401FB
:101A600080916900837F846080936900E99A81E0B6
:101A70008093BC033093AE032093AD038BEE95E0CF
:101A80009093030180930201809169008C7F8160B3
:101A900080936900E89A82E08093BC03DF91CF9144
:101AA0000895CF93DF93CDB7DEB7E3970FB6F894E1
:101AB000DEBF0FBECDBF789484B5826084BD84B58F
:101AC000816084BD85B5826085BD85B5816085BD39
:101AD00080916E00816080936E00109281008091F1
:101AE0008100826080938100809181008160809379
:101AF0008100809180008160809380008091B1009E
:101B000084608093B1008091B00081608093B000C8
:101B100080917A00846080937A0080917A0082605C
:101B200080937A0080917A00816080937A0080911E
:101B30007A00806880937A001092C10061E088E0AA
:101B40000E94330261E089E00E94330261E08AE092
:101B50000E94330261E08BE00E94330261E085E085
:101B60000E94330261E087E00E94330260E084E07B
:101B70000E9433021092E9021092E8021092E702EA
:101B80001092E6020E94FF0388EA93E09093E50238
:101B90008093E40289EA93E09093E3028093E20267
:101BA00060E08DEB93E00E94C40462E370E080E0AB
:101BB00090E00E9475031092C4031092C50341E0A7
:101BC00060E38DEB93E00E94BA068BE991E4019704
:101BD000F1F741E060E38DEB93E00E94BA0683E504
:101BE00092E00197F1F741E060E38DEB93E00E9412
:101BF000BA060FE810E0C8010197F1F741E060E292
:101C00008DEB93E00E94BA06C8010197F1F740E01E
:101C100068E28DEB93E00E94BA06C8010197F1F7E4
:101C20001092C4031092C5036091C903862F84608B
:101C30008093C9036C6040E08DEB93E00E94BA068C
:101C4000C8010197F1F70E943B071092C40310925C
:101C5000C5036091CA03862F82608093CA036660C1
:101C600040E08DEB93E00E94BA06C8010197F1F7BE
:101C700081E08093C70368E08DEB93E00E94C40489
:101C800050E040E068EB70E090E080E00E94BD0032
:101C900041E050E067EA70E081E090E00E94BD0022
:101CA00042E050E066E970E081E090E00E94BD0013
:101CB00043E050E065E870E090E080E00E94BD0005
:101CC00044E050E064E770E081E090E00E94BD00F5
:101CD0001092E7031092E6036090CB037090CC0360
:101CE0008EE690E00E948D0160E671E084E093E072
:101CF0000E9414080BEC13E0D12CC12CAAE08A2E10
:101D0000912CA12CB12C8091E8039091E903C81685
:101D1000D9060CF08BC0F12CE12CD80114968C91D3
:101D20008E151F0449F044F08BE690E00E948D016F
:101D3000BFEFEB1AFB0AF1CFF801E080F1801BA2A4
:101D40001AA21DA21CA21FA21EA250E040E062E641
:101D500071E0CE0182960E948C08BE016E5D7F4FBD
:101D6000C7010E9400094EA15FA16AA17BA184E086
:101D700093E00E94AB0388E690E00E948D01D801B9
:101D800012962D903C90032C000C4408550857FEE9
:101D900037C06DE284E093E00E94400122273327A0
:101DA000A901221933094409550919A2FE01B19666
:101DB0007F01CA01B901A50194010E946C12605D06
:101DC000D7016E937D01211531054105510589F734
:101DD000E114F10429F0B70184E093E00E941408B3
:101DE00060E671E084E093E00E941408CE018296E0
:101DF0000E940C08BFEFCB1ADB0A0B5F1F4F83CF8B
:101E0000A201910119A2FE01B1967F01CA01B90197
:101E1000A50194010E946C12605DD7016E937D0153
:101E2000211531054105510589F7D2CFC3010E9423
:101E30004F098E010F5F1F4FE4E28E2E912CF8EEBA
:101E4000AF2EF3E0BF2E0E940C066C01823091058C
:101E500009F450C148F4019709F427C1C114D10411
:101E600009F479C1F12C53C0039751F184E0C816ED
:101E7000D104A1F78091E6039091E70325E0289F24
:101E8000F001299FF00D1124DF01A553BC4F1496DA
:101E90004C91442339F31816190624F70197E65399
:101EA000FC4F50E08F3F9807E9F2208130E02F5F30
:101EB0003F4F35972417350709F43EC10197F2CFFC
:101EC0008091E6039091E70301962091E803309119
:101ED000E9038217930734F645E0489F9001499F34
:101EE000300D1124F901E553FC4F44812A533C4F36
:101EF000F901248130E02F5F3F4F4217130609F0AC
:101F0000B1CF9093E7038093E603FF24F39480918D
:101F1000E6039091E70325E0289FF001299FF00D4B
:101F20001124E553FC4F62807380808191810E946F
:101F30004F096114710409F40EC143E0C416D104C1
:101F400009F009C1F11007C16A94672809F003C1BB
:101F50000E943B0760E080E00E941C0763E671E09E
:101F60008DEB93E00E94140860E671E08DEB93E046
:101F70000E9414080E940C068230910509F4FAC0F0
:101F800008F0E2C0019709F4F3C093E09F150CF448
:101F9000F8C0AEEFE12CFA1609F4F7C061E080E07A
:101FA0000E941C0764E771E0CE0182960E94B70888
:101FB00019A618A61BA61AA61DA61CA64AE0B801BB
:101FC0008F2D0F2C000C990B0E94EC11F801019041
:101FD0000020E9F73197AF01401B510BB801CE014A
:101FE00088960E948C0869E771E0CE018E960E9467
:101FF000B7081A8219821C821B821E821D826EA55E
:102000007FA56115710529F04AA95BA9C8010E9445
:102010008C08BE01685D7F4FC8010E945008BE0158
:102020006E5D7F4F0E945008FC01448155816081A4
:1020300071818DEB93E00E94AB0360E671E08DEB64
:1020400093E00E941408C8010E940C08CE018E96ED
:102050000E940C08CE0188960E940C08CE01829640
:102060000E940C0866E970E080E090E00E94750331
:10207000EE2009F47FCF0E946F020E943B0760E0D0
:1020800080E00E941C07F1E0FF1609F4BDC0FF15B7
:102090000CF47EC0FF2009F48BC08DEB91E00E9410
:1020A000230835EAE32EF12C8AC04091E6035091D3
:1020B000E703141615060CF0D5CECA01019765E0AA
:1020C000649F9001659F300D1124F901E653FC4F88
:1020D00025533C4F8F3F980709F4C4CE5081D90156
:1020E00014964C91541708F4BDCE3597541721F12E
:1020F0000197F0CF8091E6039091E7034091E803C8
:102100005091E90325E0289FF001299FF00D11244B
:10211000E553FC4F0196DF01841795070CF0A2CE22
:1021200019963C9119972481321708F49BCE3213EB
:1021300008C08F3F980729F09093E7038093E60348
:1021400091CE01961596E8CF8330910509F438C1F8
:10215000049709F01ACF80E090E0892B09F473CE40
:102160000E94C801882309F467CE0E94000064CE53
:10217000FA940BCFF394E12C93E09F150CF00ECF63
:1021800001C0E12C83E0F82E09CFFF24FA9406CF9A
:1021900022E0F21609F441C043E0F4127ECF8FEA48
:1021A00091E00E9423084DE0E42E42E0F42E07C0A7
:1021B00085E891E00E94230872EDE72EF12C61E0A2
:1021C00080E00E941C0764E271E082E00E945707F1
:1021D00061E083E00E941C0762E08DEB93E00E94C7
:1021E000490761E085E00E941C078BEC91E00E94AA
:1021F00023080E940C0683309105C1F0049709F46E
:10220000AACF0E946F02F5CF83E991E00E942308D4
:1022100061E1E62EFF24F394D2CF81EA91E00E949F
:10222000230850E7E52EFF24F394C9CF0E946F02E4
:102230000E943B0787ED91E00E942308C7010A979F
:10224000B4010E9458126B017C01362E61E087E0D8
:102250000E9405028AE090E00E94B6070E94810772
:10226000EA9C2001EB9C500CFA9C500C1124052C8C
:10227000000C6608770822E0E22EF12C60E375E797
:1022800080E090E00E94750386E090E00E94B6072F
:10229000EC14FD0414F00E946F02C301B2010E940D
:1022A00075030E946F028FEFE81AF80A8EEF8E0D09
:1022B000831520F360E087E00E9405020E943B073F
:1022C00085EE91E00E94230861E080E00E941C07F7
:1022D00064E271E082E00E94570761E083E00E94BF
:1022E0001C0762E08DEB93E00E94490761E085E006
:1022F0000E941C078AEF91E00E9423080E943B077E
:102300000E940C068330910531F0049709F423CF25
:102310000E946F02F5CF0E946F028DE092E00E9452
:10232000230861E087E00E9405020E94810790EC8B
:10233000F92E8FE090E00E94B60768E97AE380E02A
:1023400090E00E947503FA94F110F3CF0E946F029F
:1023500060E087E00E9405020E943B0760E080E0A9
:102360000E941C0787E192E00E94230861E080E060
:102370000E941C0764E271E082E00E94570761E05E
:1023800083E00E941C0762E08DEB93E00E94490706
:1023900061E085E00E941C078BEC91E00E9423081D
:1023A0000E943B070E940C068330910531F0049790
:1023B00009F4D1CE0E946F02F5CF0E946F02CBCEFE
:1023C000EE24E394D9CEFC0105900020E9F7809536
:1023D00090958E0F9F1F0895BB274A3031F49923A3
:1023E00022F4BDE2909581959F4F0C94F811BB2784
:1023F000FB015527AA27880F991FAA1FA41710F0C1
:10240000A41B83955051B9F7A05DAA3308F0A95DCC
:10241000A193009779F7B111B1931192CB010C946C
:102420001112DC01FC01672F71917723E1F73297DC
:1024300004C07C916D9370836291AE17BF07C8F39F
:1024400008952F923F924F925F926F927F928F9258
:102450009F92AF92BF92CF92DF92EF92FF920F9333
:102460001F93CF93DF93CDB7DEB7CA1BDB0B0FB63D
:10247000F894DEBF0FBECDBF09942A8839884888FA
:102480005F846E847D848C849B84AA84B984C88490
:10249000DF80EE80FD800C811B81AA81B981CE0F87
:1024A000D11D0FB6F894DEBF0FBECDBFED0108956C
:1024B000AA1BBB1B51E107C0AA1FBB1FA617B7076A
:1024C00010F0A61BB70B881F991F5A95A9F7809586
:1024D0009095BC01CD010895A1E21A2EAA1BBB1B49
:1024E000FD010DC0AA1FBB1FEE1FFF1FA217B307E0
:1024F000E407F50720F0A21BB30BE40BF50B661FF6
:10250000771F881F991F1A9469F7609570958095B9
:1025100090959B01AC01BD01CF010895EE0FFF1F07
:102520000590F491E02D09940F931F93CF93DF93BF
:102530008230910510F482E090E0E091EC03F0919C
:10254000ED0330E020E0B0E0A0E0309799F42115F1
:10255000310509F44AC0281B390B24303105D8F560
:102560008A819B816115710589F1FB0193838283C7
:10257000FE0111C040815181028113814817590722
:10258000E0F04817590799F4109761F012960C93F0
:10259000129713961C933296CF01DF91CF911F9122
:1025A0000F9108950093EC031093ED03F4CF2115E0
:1025B000310551F04217530738F0A901DB019A01A8
:1025C000BD01DF01F801C1CFEF01F9CF9093ED0319
:1025D0008093EC03CDCFFE01E20FF31F8193919323
:1025E0002250310939832883D7CF2091EA033091D3
:1025F000EB03232B41F42091080130910901309322
:10260000EB032093EA032091060130910701211585
:10261000310541F42DB73EB740910A0150910B01AD
:10262000241B350BE091EA03F091EB03E217F3076B
:10263000A0F42E1B3F0B2817390778F0AC014E5F32
:102640005F4F2417350748F04E0F5F1F5093EB0381
:102650004093EA03819391939FCFF0E0E0E09CCF19
:10266000CF93DF930097E9F0FC0132971382128237
:10267000A091EC03B091ED03ED0130E020E0109764
:10268000A1F420813181820F931F2091EA033091C0
:10269000EB032817390709F061C0F093EB03E093CF
:1026A000EA03DF91CF910895EA01CE17DF07E8F53D
:1026B0004A815B819E0141155105B1F7E901FB8318
:1026C000EA8349915991C40FD51FEC17FD0761F4B6
:1026D000808191810296840F951FE90199838883F7
:1026E000828193819B838A83F0E0E0E012968D9152
:1026F0009C9113970097B9F52D913C911197CD01BD
:102700000296820F931F2091EA033091EB03281762
:10271000390739F6309751F51092ED031092EC031A
:10272000B093EB03A093EA03BCCFD383C283408171
:102730005181840F951FC817D90761F44E5F5F4F11
:1027400088819981480F591F518340838A819B81D9
:10275000938382832115310509F0B0CFF093ED0307
:10276000E093EC039ECFFD01DC01C0CF1382128207
:10277000D7CFB0E0A0E0EFEBF3E10C9423128C0193
:10278000009751F4CB010E9494128C01C801CDB77F
:10279000DEB7E0E10C943F12FC01E60FF71F9C014D
:1027A00022503109E217F30708F49DC0D901CD91F9
:1027B000DC911197C617D70798F0C530D10530F3D3
:1027C000CE0104978617970708F3C61BD70B2297ED
:1027D000C193D1936D937C93CF010E943013D6CFD8
:1027E0005B01AC1ABD0A4C018C0E9D1EA091EC033E
:1027F000B091ED03512C412CF12CE12C109731F5C7
:102800008091EA039091EB038815990509F05CC06B
:102810004616570608F058C08091060190910701AE
:10282000009741F48DB79EB740910A0150910B017A
:10283000841B950BE817F90708F055C0F093EB03DC
:10284000E093EA03F90171836083A0CF8D919C919D
:10285000119712966C90129713967C901397A81567
:10286000B90559F56C0142E0C40ED11CCA14DB0451
:1028700020F1AC014A195B09DA011296159780F034
:102880006282738251834083D9016D937C93E114FA
:10289000F10471F0D7011396FC93EE93129776CF63
:1028A00022968C0F9D1FF90191838083F301EFCF56
:1028B000F093ED03E093EC0369CF4816590608F452
:1028C0002C017D01D3019ACFCB010E9494127C018F
:1028D000009749F0AE01B8010E947614C8010E9429
:1028E0003013870153CF10E000E050CFFB01DC0133
:1028F00002C001900D9241505040D8F70895FB015D
:10290000DC0101900D920020E1F70895F894FFCFCB
:1029100001FFAA03AA030000EE0380000000110AD1
:10292000040A110000080C1E1F1E0C080002060FEE
:102930001F0F0602010101050D1F0C040040145475
:10294000000000004001AB03E100A8011201F0000B
:1029500004010000000095046804B7063E04610409
:102960004E043F04000000004907AB03B706B6065B
:102970000D0A00432D343120446576656C6F706D0F
:10298000656E74002073747000507573682F5075F5
:102990006C6C3A2000432D34312C202B30205075A4
:1029A000736800432D34312C202B3120507573680F
:1029B00000432D34312C202B322050757368004396
:1029C0002D34312C202B33205075736800432D3467
:1029D000312C202D312050756C6C00746F20737475
:1029E0006172742E2E2E00446576656C6F70696E70
:1029F000672E2E2E00446576656C6F706D656E7463
:102A00002046696E697368656400746F2073746131
:102A1000727420666978696E672E2E2E004669787A
:102A2000696E672E2E2E0050726F63657373204699
:082A3000696E697368656400BA
:00000001FF
